:020000040800F2
:1040000000500020697B00083D7A0008417A0008D2
:10401000457A0008497A00084D7A0008000000003F
:10402000000000000000000000000000557A0008B9
:10403000517A000800000000597A000811A1000818
:104040005D7A0008617A0008657A0008697A0008DC
:104050006D7A0008717A0008757A0008797A00088C
:10406000000000007D7A0008817A0008000000004E
:104070000000000000000000000000000000000040
:104080000000000000000000A17A0008A57A0008E6
:10409000B57A0008C57A0008E17A00086D45000885
:1040A000F17A0008554900080000000000000000F7
:1040B00059460008A94500082D460008F57A000871
:1040C000F97A0008FD7A0008017B0008057B0008EA
:1040D000097B00080D7B0008117B0008F1440008F3
:1040E000197B00081D7B0008217B000800000000F0
:1040F00000000000000000000000000000000000C0
:0C41000000000000000000005FF800005C
:10410C0030BF704720BF704740BF7047BFF36F8F01
:10411C007047BFF34F8F7047BFF35F8F704701DF5E
:10412C007047EFF31480704780F31488BFF36F8FE0
:10413C007047EFF30980704780F309887047EFF3FD
:10414C000880704780F30888704772B6704762B673
:10415C00704771B6704761B6704780F3118870472D
:10416C00EFF31280704740BA704700BA70470000F6
:10417C00054A0649064B1160064A1360064A13604D
:10418C00064A1360704700BFB8040020498F00082E
:10419C00018E000894040020580300208C04002099
:1041AC0030B597B003F04CFA03F06AFA09F0DAFC78
:1041BC00594B00254FF480301D7009F0F3FC09F0C9
:1041CC0057FE0128044627D110200AF07DF9022061
:1041DC000AF062F9284609F035FD284609F046FD3B
:1041EC004FF4806009F038FD4FF480304FF4E0114B
:1041FC0009F004FD204609F00DFD392009F022FEDE
:10420C000028FAD0022009F00BFD09F013FD082854
:10421C00FBD1414B01221A700120014609F0C8FD67
:10422C003E4C4FF480414FF0006009F023FF4FF4F7
:10423C00407009F081FEFFF79BFF05F0B9F805F01F
:10424C00F1F806F0DDFF03F041FE2046344905F09D
:10425C00A9FA05F097FF05F0BFF8324B1B78012B3C
:10426C0005D1207804F0D4FBE07804F03DFB2E4B14
:10427C001B78012B25D12D4C0DF1100C25460FCDA3
:10428C00ACE80F00AE46BEE80F00ACE80F009EE8AD
:10429C000F0030340DF1400E8CE80F000FCCAEE85F
:1042AC000F0094E8030005248EE80300009404AC8E
:1042BC000194202010AC1E4904221B23029404F00C
:1042CC0001FF00F03FF800F035F800F041FD01F07F
:1042DC0051F903F0A1F940F2127006F0E3F940F243
:1042EC00167006F081F903F0C9FA03F093FA00F0A6
:1042FC003FF820B902F02EFF00F080FC04E0012012
:10430C0002F028FF00F0AAFD03F088F906F0A2F9EC
:10431C0000F088FBE9E700BFA4040020BC040020E7
:10432C00C40300204600002049000020DCF20008F5
:10433C0000140140024B00225A601A70704700BFF3
:10434C008C010020084A094B12680021D20283F824
:10435C002C109A629A605A611A62DA609A615A62F7
:10436C001A61DA61704700BF140000208C01002034
:10437C00014B93F82C0070478C010020014B186BFB
:10438C00704700BF8C010020014B586B704700BF79
:10439C008C010020014B1868704700BF1C090020DD
:1043AC00014B986B704700BF8C01002008B5024B85
:1043BC0018680AF067FF08BD54090020014BD86B40
:1043CC00704700BF8C010020014B1868704700BF7C
:1043DC0070090020014B1868704700BF24090020A9
:1043EC00014B1868704700BF2C090020034B93F851
:1043FC00462022EA000283F846207047C4030020BE
:10440C00034B93F8463018420CBF00200120704734
:10441C00C4030020034B93F85D2040EA020283F8AA
:10442C005D207047C4030020034B93F85D2022EA03
:10443C00000283F85D207047C4030020034B93F8FF
:10444C005D3018420CBF002001207047C4030020CF
:10445C00014B1868704700BF40090020014B1868D9
:10446C00704700BF08090020014B5868704700BF17
:10447C0008090020014B1868704700BF580900203C
:10448C00014B5868704700BF5809002008B501203F
:10449C00FFF7D4FF48B1054B00220420DA63FFF785
:1044AC00CDFF10B10120FFF7BFFF08BD8C0100202C
:1044BC0008B506F0E5FA08BD08B506F049F908BDDF
:1044CC0008B54FF4803004F047FF08BD08B5044B25
:1044DC0093F86C301BB94FF4003004F03DFF08BD6D
:1044EC00C403002008B5034B1B78012B01D104F049
:1044FC0033FA08BD4700002008B50220FFF780FF03
:10450C0038B1044BB3F8440006F0C0FA0220FFF7B0
:10451C006DFF08BDC403002008B50120FFF770FF34
:10452C00C0B106F0BDFA0C4991F825300A6C5B0855
:10453C00B2FBF3F3B0FBF3F202FB1303074A21F8CF
:10454C00443F126802F14400022204F097FF01205C
:10455C00FFF74CFF08BD00BFC4030020040000207F
:10456C0008B54FF480700AF021F888B14FF48070D0
:10457C000AF02AF8074B1B78012B03D0064B1B784B
:10458C00012B05D1FFF7C8FFFFF7B6FFFFF77EFF42
:10459C0008BD00BF440000202F02002008B5044BCA
:1045AC001978012903D1034B186808F07FFF08BD67
:1045BC00440000204000002038B5164C0221206831
:1045CC0008F06EFF012819D10221206808F06EFF57
:1045DC00002003F061F9104C0546014694F84000A8
:1045EC0006F07EF80D4B84F8405093F8213080B2E1
:1045FC00062B03D1E26B03B29B18E363054C01213C
:10460C00206808F04DFF0128014602D1206808F00F
:10461C004DFF38BD380000208C010020C403002061
:10462C0008B5074B1978012903D1064B186808F017
:10463C003DFF054B1B78012B01D1FFF7BDFF08BDDA
:10464C002F020020400000202D02002008B5074B4F
:10465C001978012903D1064B186808F027FF054B80
:10466C001B78012B01D1FFF7A7FF08BD2E020020FC
:10467C00400000203C00002038B5244B93F821204A
:10468C00072A25D0082A39D0062A3DD1204A0128EC
:10469C00D36B1F4D08BF536401286A6C1D4C6B64AF
:1046AC0002D1AB6C23602FE09B1A184A206892F859
:1046BC0025104EF6602253434908062251432232FC
:1046CC0093FBF1F106F0E4FE20602368AB641BE081
:1046DC0001280F4A0F4C02D1D36C23600AE00E491B
:1046EC000868196C4EF66023434393FBF1F3236087
:1046FC002368D364084B00221A6005E0074B186846
:10470C000AF0C0FD034B186038BD00BFC403002085
:10471C008C010020240900206C0900205409002081
:10472C0010B504464FF4804004F016FE034B0120F4
:10473C00DC639C63FFF7A0FF10BD00BF8C01002061
:10474C00B0F5007F10B5044610D003DCB0F5807FC7
:10475C0037D121E0B0F5806F03D0B0F5006F30D1C8
:10476C000DE004F0F1FD4FF4807019E004F0ECFD65
:10477C004FF4807004F0F0FD4FF4806014E004F00E
:10478C00E3FD4FF4807004F0E7FD4FF4806004F01B
:10479C00E3FD4FF400700BE004F0D6FD4FF48060A5
:1047AC0004F0DAFD4FF4007004F0D6FD4FF4006015
:1047BC0004F0D2FD4FF4804004F0CEFD024BA3F880
:1047CC006E40024B1C6010BDC40300202809002061
:1047DC0010B504464FF4803004F0C6FD012808D013
:1047EC00044B4FF400601C60FFF7AAFF024B002241
:1047FC001A6010BD300900205409002038B5054658
:10480C004FF4803004F0B0FD01281CD00E4B4FF457
:10481C0080601C680D4B9D63FFF792FF4FF4804046
:10482C0004F09AFDB4F5007F04D1094B1A68094BCA
:10483C001A6008E0B4F5006F05D1074B18680AF050
:10484C0007FB044B186038BD280900208C010020A0
:10485C0054090020EC0800202409002008B5034B63
:10486C00DB6BC018FFF7CAFF08BD00BF8C0100202E
:10487C0038B505464FF4803004F076FD01281AD087
:10488C000D4B4FF400701C680C4B1D60FFF758FF6C
:10489C00B4F5006F05D10A4B18680AF0D9FA094B28
:1048AC001860094B9B6813F4005F04D104F076FD8B
:1048BC0008B902F055FF38BD280900207009002006
:1048CC0024090020540900200010014008B54FF4C1
:1048DC008070FFF735FF08BD38B5174B186808F026
:1048EC00D7FD164B0422196C91FBF2F290420ADAB6
:1048FC004FF0030C0CFB02FC114B1B6D634502DDEE
:10490C00CB1A1B180DE003235343984206DD0C4BC6
:10491C001B6D934202DAC31A5B1A02E0084B1B6D43
:10492C00C31A074A0749D46B0D68E41AEB1A0B60DB
:10493C001065D46338BD00BF40000020C4030020C4
:10494C008C0100206C090020224A08B51288224BE9
:10495C0012F0100F2ED121495A6D08680132013026
:10496C00086019785A65012903D11D4B4FF4804119
:10497C0019611C4B93F82130072B0AD1132A05D946
:10498C00154A002318465365FFF776FE0120FFF702
:10499C00A3FF144B93F82130062B01D0082B13D115
:1049AC000D4B5A6D132A0FD9002210465A65FFF78A
:1049BC0063FE09E01978012906D1094B4FF48042B6
:1049CC0009485A6109F058FF0248012108F06EFDB0
:1049DC0008BD00BF002C01408C0100200409002000
:1049EC0000100140C40300200024014008B502F06F
:1049FC00C7FEA0B904F0D2FC88B900F5005004F051
:104A0C00B3FC60B900F5807004F0AEFC38B9044B0F
:104A1C004FF461729A861A879A8702F0A1FE08BD3C
:104A2C00002C014010B505F0A7FB204CA36DC31A58
:104A3C00002BB8BF5B42B3F57A7F36DD1C4B9B680D
:104A4C0013F4806F2AD102F09BFE60B1012004F0B8
:104A5C007BFC402004F078FC94F85C300A2B02D8E4
:104A6C00013384F85C304FF4807004F07DFC20B985
:104A7C00FFF7FEFE0F4B00221A6002F081FE80B1A0
:104A8C000A4B93F85C300A2B0BD8094B4FF400629D
:104A9C001A6140205A6104F05FFC02E0002384F8A4
:104AAC005C3005F069FB014B986510BD8C01002052
:104ABC00001001405409002010B505F05DFB1A4CA4
:104ACC00236EC31A002BB8BF5B42642B2ADD174B35
:104ADC00186803F06BF8164B206393F82F30012BFA
:104AEC000AD103F55E63984206DD02F041FE042014
:104AFC0004F02AFCFFF7EAFE0B4B1A6B40F216335C
:104B0C009A4202DC022004F01FFC074B1A6B40F2A5
:104B1C0016339A4202DD022004F01EFC05F02CFB39
:104B2C00014B186610BD00BF8C0100203000002026
:104B3C00C403002010B505F01FFB264C636EC31A8E
:104B4C00002BB8BF5B42B3F57A7F42DD224B18686D
:104B5C0003F02CF86063082004F006FCB8B9636B12
:104B6C0040F6B322934209DD083004F0EDFB02F06D
:104B7C001BFE02F0FDFDFFF7A9FE26E0B3F5156F55
:104B8C000ADC082004F0E8FB02F014FE09E0626B7A
:104B9C0040F60B239A4218DC082004F0DDFB02F0EF
:104BAC000FFE0E4B9B6813F4005F0ED104F0F6FB66
:104BBC0058B900F5005004F0D7FB30B900F58070FF
:104BCC0004F0D2FB08B902F0CBFD05F0D5FA014B8D
:104BDC00586610BD8C0100203400002000100140EC
:104BEC0008B5054A0346022093FBF0F080B282F828
:104BFC00253005F007FF08BDC40300202DE9F04166
:104C0C003A4B93F82C201446002A6DD15A6825464D
:104C1C0001325A60012D05D0022DDFF8DC8008D05E
:104C2C00334B07E0334B186802F0C0FF324B1F6860
:104C3C0005E0324B186802F0B9FFD8F80070474312
:104C4C002F4B1A59974201D901321A512D4B1A592F
:104C5C00974201D2013A1A512A4B03F10C021E5908
:104C6C0012591833B6181B5976089E4201D95E1C8E
:104C7C0001E038BF5E1E012D09D0022DDFF87880CF
:104C8C000CD0D8F800101A4BB6FBF1F10BE01A4B14
:104C9C001968184BB6FBF1F1186805E0D8F800104C
:104CAC00164BB6FBF1F1186802F088FF154B16494C
:104CBC001A590E51BA4201D201321A51104B1A59DB
:104CCC00BA4201D9013A1A5101350434032DA1D14C
:104CDC00094B4FF47A711A68044B4A435968914254
:104CEC0002DB012283F82C20BDE8F0818C0100202E
:104CFC002802002028000020140000202C00002096
:104D0C00A001002094010020AC01002010B50C4C37
:104D1C0023789BB90B4B4FF40061186802F04EFFDF
:104D2C00094B4FF40061186802F048FF074B4FF431
:104D3C000061186802F042FF0123237010BD00BF10
:104D4C008C01002028020020280000202C000020CC
:104D5C0010B502F0F5FC012002F068FF2F4C304832
:104D6C0003F0A6FD2F4803F0A3FD05F0CDFA94F84F
:104D7C002130062B0FD14FF4004004F0E5FA8020CF
:104D8C0004F0EAFA012005F05BFD94F825004008D8
:104D9C0005F01CFD01E005F033FD204C94F82130AA
:104DAC00072B21D14FF4004004F0D6FA802004F0F8
:104DBC00D3FA94F82E30012B02D1002005F040FDDF
:104DCC00164C206C94F8301005F0C0FE94F82510A9
:104DDC00206C490805F022FE05F030FE03F0ECF9DA
:104DEC00012005F031FE01E005F07AFE0B4B4FF48B
:104DFC00004293F85C000C4B5A6100B1012002F0A8
:104E0C001BFF094B4FF480521A6102F5E0425A61C4
:104E1C00FFF7ECFDFFF77AFF10BD00BFC4030020C5
:104E2C0008090020580900200010014038B5094C31
:104E3C00094D94F8682095F821309A4208D0FFF774
:104E4C0087FF0120FFF718FC95F8213084F86830B3
:104E5C0038BD00BF8C010020C40300202DE9F041B7
:104E6C0090B005F089F9554C0646E36EC31A002B39
:104E7C00B8BF5B42B3F57A7F0DDB0025206F04F0E1
:104E8C0097F9606F256704F099F9A06F656704F0D6
:104E9C009BF9E666A5674A4A484B1168494A186F60
:104EAC0012690029B8BF49420130002AB8BF5242EA
:104EBC009142186703DC102004F046FA02E010203F
:104ECC0004F04AFAFFF7B2FF3E4DFFF7F5FDFFF78E
:104EDC0031FE3D4BAA6919689142C0F0B680374C3F
:104EEC000021A26F4FF4004001321960A26704F058
:104EFC003BFA012834D14FF4806004F035FA0128D4
:104F0C002ED1A16B314BE26B284603F0B1FC304B38
:104F1C00186004F099F960B104F004FA022808D181
:104F2C00A26BE36B0E920F930EAB93E8030004F0AD
:104F3C00A7F9224A234B906BD16BDA68411A0029EE
:104F4C00B8BF494291420BDC1D4A9B681268002A8B
:104F5C00B8BF52429A4203DC4FF4804004F0F4F99B
:104F6C00184C94F82030012B38D14FF4806004F0A9
:104F7C00FBF901280DD1114A1649D36B956B144AD4
:104F8C0020461268009503F07DF809F061FF124B82
:104F9C0018604FF4007004F0E7F9012829D10E4C89
:104FAC0020680AF06FF90A4B01461A68054803F0AD
:104FBC0033F809F04DFF20601BE000BF8C0100208E
:104FCC0024090020C403002074090020400900209B
:104FDC0070090020EC08002054090020924B216835
:104FEC0018680A46494206F033FA09F031FF8F4B34
:104FFC0018604FF4007004F0B7F9012805D04FF495
:10500C00806004F0B1F901281FD1884D884C2868C4
:10501C000AF038F926680146864B3246864803F07A
:10502C00DBFB864B186004F00FF970B104F07AF9D1
:10503C0001280AD128680AF025F923680E900F93ED
:10504C000EAB93E8030004F01BF97D4E7A4B3168EC
:10505C00DA699142C0F060817A4F9A8D7B6F4FF084
:10506C00000EC6F800E003F1010C3E26C7F874C030
:10507C000AAC0096744D06F5D276C82164232046FE
:10508C0001964FF40266029602F06CFE94E807005B
:10509C0085E807004FF4806004F066F901280BD016
:1050AC004FF4007004F060F9012805D04FF4006053
:1050BC0004F05AF9012840D15D4B624DD3F80080C1
:1050CC00614A594B05F17C0E6F4607CAD3F800C0F4
:1050DC0087E80700CDF810E0DFF888E1574ECDF8EF
:1050EC0014E0DFF848E1534B53485849584A594C9F
:1050FC00CDF818E0CDF81CC0CDF82080039603F055
:10510C00A1F8B5F97C20B5F97E103368524D891899
:10511C00206810222B6006F0BBF9206004F094F894
:10512C0058B104F0FFF840B923682A680F930E9227
:10513C000EAB93E8030004F0A3F8464B3E4D186801
:10514C00294605F0F3F905F02BFA2B6E984228D975
:10515C0005F012F83B4CD4F88030C31A002BB8BFC2
:10516C005B42B3F57A7F1CDB05F0D8F94FF40030C5
:10517C0004F0EAF895F86C3063B9384B2946186896
:10518C00012201F86C2F6C3004F078F904F0F4FF74
:10519C00C4F8840005F016FA04F0EEFF294BC3F8AE
:1051AC00800004F0E9FF274B2349D3F884204B6E91
:1051BC00821A002AB8BF52429A420BD391F86C2043
:1051CC00012A07D1254B1868002301F86C3F6C307D
:1051DC0004F054F9184B93F86C30012B03D14FF4B5
:1051EC00003004F0B1F84FF4003004F0BDF80128A1
:1051FC0008D1104803F05CFB194803F059FB002060
:10520C00FFF7E6FA02F086FD124B1A680A4B002AE9
:10521C005B68B8BF52429A4226DD012004F094F834
:10522C0002F0DCFA25E000BF7009002054090020D0
:10523C002409002008090020C403002030090020A4
:10524C00040900208C01002034090020580900209A
:10525C00F00800202C0900201C090020040000206C
:10526C0040090020EC080020012004F075F802F041
:10527C00BBFA2B4B93F8222012F0010F22D0294AB3
:10528C001268002A1EDD93F8233013F0010F03D0AF
:10529C00002002F0D1FA40B9214B93F8230010F012
:1052AC0001000FD102F0C8FA60B90220FFF7C6F86E
:1052BC0010B11D4B0022DA630020FFF7D9FA1B4B0B
:1052CC0000221A60164B93F8222012F0020F23D002
:1052DC00144A1268002A1FDA93F8233013F0020FD5
:1052EC0003D0012002F0A8FA48B90D4B93F82330F3
:1052FC0013F0020F10D1012002F09EFA60B90220C7
:10530C00FFF79CF810B1084B0022DA630020FFF77E
:10531C00AFFA064B00221A6010B0BDE8F08100BF56
:10532C00C4030020240900208C0100205409002013
:10533C000A4938B5CC6B00238C630949094D0B60C5
:10534C00094900220A602A60084A094D01202B6095
:10535C001360FFF791F9FFF7FBFC38BD8C010020BF
:10536C007009002054090020EC0800201C090020C2
:10537C003009002010B5104B5B788BB90F4A012017
:10538C0091780F4A14680F4A10700F4A117001334C
:10539C00E21812F8011C0C4A082B9954F7D109E0B9
:1053AC00012B07D1094B0521022219715631997134
:1053BC005A71DA7110BD00BF4C030020BC040020F0
:1053CC001C000020B4030020B8030020AC04002013
:1053DC00044B5A6840F2D2439A4202D1024B01224A
:1053EC001A7070474C0300207809002010B51C4A35
:1053FC001C4B116801EA03031B498B422ED15268E6
:10540C001A4B9A422AD102F0B3F9194B1B78012B93
:10541C0010D103F007FE04F0AFFE044601E002F0E9
:10542C00F9F904F0A9FE001B0028B8BF4042B0F502
:10543C007A7FF4DB03F0BEFF08F04CFD002008F08F
:10544C00D1F900210B4809F065F90A4809F0C2F8B6
:10545C00094809F051FB002003F0B6FF10BD00BF56
:10546C004C03002000FFFF0000819200D6C5B4A3BE
:10547C0049000020080002400024014010B5164BE2
:10548C009A78012A08D003D3022A144C0FD109E0D0
:10549C00587802F0D1F902E0587802F0F1F90F4B8C
:1054AC00586006E0587802F0D9F9606001E00423F6
:1054BC0023700B4B1B786BB1084B0A495A680A4B8B
:1054CC000A601AB91A6842F0080202E01A6822F05F
:1054DC0008021A6010BD00BF4C030020AC04002071
:1054EC0090040020B00300205403002008B5104B9A
:1054FC009A78012A02D0022A16D10CE05A7842B9C5
:10550C00586810B903F058FF11E0104603F058FF2B
:10551C000DE0032209E05A68587812B902F07CF9C0
:10552C0005E002F081F902E00422024B1A7008BD7A
:10553C004C030020AC04002008B50B4B9A78022ACF
:10554C000ED15B78372B09D89B00084903F5E26034
:10555C00C9180A30023203F06DFF04E0032200E0A8
:10556C000422034B1A7008BD4C030020E8040020F1
:10557C00AC040020144A00231360144A10B51360C5
:10558C00134A1360134A1360134A1370134A002111
:10559C0099500433B3F5806FF8D1114B1B7E63B96E
:1055AC0040F21A740F4920460919042203F042FFF5
:1055BC00043440F2FA739C42F4D1094A0A4B527DEE
:1055CC0002B101221A7010BD58040020B003002053
:1055DC00E40400205403002048030020E8040020C9
:1055EC00BC040020CEFDFF1F9804002008B50B4B17
:1055FC009A78022A0ED15B78372B09D89B00084980
:10560C0003F5E260C9180A30023203F037FF04E0F8
:10561C00032200E00422034B1A7008BD4C03002047
:10562C00E8040020AC04002008B5604B9A781AB14D
:10563C00022A40F0A68099E05B78502B69D020D8E4
:10564C00452B51D00ED8422B44D005D8402B38D006
:10565C00412B40F089803BE0432B3FD0442B40F062
:10566C0083803EE0492B48D004D8462B3FD0472BB3
:10567C007AD13FE04C2B46D04D2B47D04B2B73D1DE
:10568C003EE0812B59D00ED8532B4BD004D8512B44
:10569C0042D0522B68D142E05A2B49D0802B4AD0B1
:1056AC00552B61D141E0842B52D004D8822B4BD0A6
:1056BC00832B59D14AE0FE2B4DD04FD8F02B53D130
:1056CC0049E03B4B186803F057FF3A4B58605BE0DE
:1056DC00394B41E0384B5A78364B4EE0364B1A7901
:1056EC00FAE7354BDA69F7E7334B5A79F4E7324B83
:1056FC00DA68F1E7304B9A68EEE72F4BDA7D2FE052
:10570C002D4BDA78E8E72C4B9A78E5E72A4B5A7D53
:10571C00E2E7294B9A7DDFE7274B1A7DDCE7264B26
:10572C001A6AD9E7244B1A69D6E7234B1A7ED3E7BA
:10573C00214B5A6AD0E7214B0EE0204B1A78042AF1
:10574C0014BF00220122C7E71D4B02E01D4B00E0F5
:10575C001D4B1A68C0E71D4B1A78BDE71C4B1A7815
:10576C00003A18BF0122B7E703220BE05A78114B1D
:10577C00372A04D8174951F822205A6004E0032232
:10578C0001E004220B4B1A70134B1B786BB1094BC5
:10579C0012495A68124B0A601AB91A6842F0080288
:1057AC0002E01A6822F008021A6008BD4C030020BF
:1057BC000C000020AC040020BC0400209804002045
:1057CC0058040020800900207C090020A40400203B
:1057DC0088040020E804002090040020B00300207E
:1057EC005403002010B5884B9A781AB1022A40F065
:1057FC001D81FEE05A784C2A00F09C801ED8442A69
:10580C005ED00CD8412A42D003D8402A40F0F9800F
:10581C0039E0422A44D0432A40F0F38048E0472A3A
:10582C0066D005D8452A53D0462A40F0EA8057E086
:10583C00492A65D04B2A40F0E4806EE0532A00F0F0
:10584C00AD800ED8502A00F0858003D84D2A40F048
:10585C00D88077E0512A00F08580522A40F0D18020
:10586C0094E0832A00F0B98006D8552A00F09E8077
:10587C005A2A40F0C680A5E0842A00F0B280FF2AA4
:10588C0040F0BF80B2E01979604B186805E0604ABF
:10589C001B7910685F4A1946137003F085FEC8E047
:1058AC005B4A1B7910685B4A013019465370F4E768
:1058BC00574A1B791068574A043019461371ECE7A4
:1058CC00534A5B68106853491C3041F81C3F80E018
:1058DC004F4A1B7910684F4A053019465371DCE763
:1058EC004B4A5B6810684B490C3041F80C3F70E038
:1058FC00474A5B6810684749083041F8083F68E040
:10590C001A79444B12B1444901224A60DA75404B72
:10591C001868404B1730D97DBFE73D4A1B7910689A
:10592C003C4C03301946E37003F03EFEE07802F085
:10593C00DBFF7EE0364A1B791068364A0230194686
:10594C009370AAE7324A1B791068324A153019460F
:10595C005375A2E72E4A1B7910682E4A1630194649
:10596C0093759AE72B4A127D12F0010F05D01B7923
:10597C0013F0010F01D103F0CFFE254A224B106822
:10598C001B79244A14301946137586E7204A5B6844
:10599C0010682049203041F8203F1AE01C4A5B680F
:1059AC0010681C49103041F8103F12E05A68012A67
:1059BC003CD8174A1B7910681649183001F8183F63
:1059CC00012207E0124A5B6810681249243041F842
:1059DC00243F042203F052FD2BE00F4B5A680F4B6F
:1059EC0002E00D4B5A680E4B1A6022E01A790D4BEF
:1059FC001EE05A78372A04D859680B4B43F822100A
:105A0C0017E0032213E000BF4C0300200C00002021
:105A1C0088010020BC040020AC0400208009002078
:105A2C007C09002088040020E80400200422014B9B
:105A3C001A7010BDAC04002008B50020FEF718FF4A
:105A4C0008BD00BF08B5024B5868FEF711FF08BD32
:105A5C004C03002008B5034B58684042FEF708FF82
:105A6C0008BD00BF4C03002008B5AE4B9A78002A45
:105A7C0041F078815A78B12A00F0778572D81F2AC4
:105A8C0000F0DF8236D80A2A00F0E78118D8032A02
:105A9C0000F0268105D8012A00F0F78000F203817E
:105AAC00E5E0062A00F0548103D8042A41F058811D
:105ABC001CE1072A00F07981092A41F05181A0E10B
:105ACC001A2A00F04B8209D80D2A00F01D82192ADF
:105ADC0000F020820B2A41F04381E9E11C2A00F0FE
:105AEC008182C0F079821D2A00F090821E2A41F03A
:105AFC00378192E29F2A00F0628319D8962A00F02F
:105B0C002C8309D8862A00F0CE82922A00F0F682E5
:105B1C00852A41F025819BE2982A00F02A83C0F067
:105B2C0022839B2A00F02B839C2A41F0198140E3AD
:105B3C00A42A00F0258408D8A22A00F0B78300F22A
:105B4C00EA83A12A41F00C8169E3A62A00F074844F
:105B5C00C0F04484AC2A00F09D84AD2A41F0008151
:105B6C0000F0C4BCE22A00F026863AD8C52A00F020
:105B7C00B1851AD8C02A00F0678509D8BE2A00F072
:105B8C00478500F25385B22A41F0EA8000F017BD38
:105B9C00C22A00F07585C0F06585C32A00F07E85A9
:105BAC00C42A41F0DD8000F087BDC92A00F0C3850E
:105BBC0006D8C72A00F0AA8500F2B68500F098BD79
:105BCC00D32A00F0C68504D8D22A41F0C98000F04F
:105BDC00B9BDD42A00F0C485E12A41F0C18000F09F
:105BEC00C7BDF12A00F0FC861FD8EA2A00F03186E6
:105BFC000AD8E52A00F0FE85E62A00F00286E42A9F
:105C0C0041F0AE8000F0DEBDEE2A00F0718604D8C3
:105C1C00EB2A41F0A58000F043BEEF2A00F09086FD
:105C2C00F02A41F09D8000F0B3BEFB2A00F0C08743
:105C3C0010D8F52A00F0438704D8F42A41F090805C
:105C4C0000F012BFF92A00F06087FA2A41F0888030
:105C5C0000F085BFFD2A00F0FE87C0F0D287FE2A37
:105C6C0001F03880FF2A41F07B8001F058B80528FC
:105C7C0005D12C4B5868FEF7C1FD01F08AB80628F7
:105C8C0041F08780FEF78CFB26E0052805D1254BDB
:105C9C005868FEF745FD01F07CB8062841F0798084
:105CAC00FEF78CFB18E0052811D11E4B1E4A5868D4
:105CBC0000F5423303F5A863934203D8FEF7D8FDF1
:105CCC0001F067B8194B04221A7001F062B806286B
:105CDC0041F05F80FEF778FB144B586001F047B839
:105CEC00062841F05680FEF775FBF5E705280AD12A
:105CFC000C4B0F495B688B4295BF0E4A0B4B1360E4
:105D0C001A7001F046B8062802D10A4B1A686BE2E9
:105D1C00072813D1084B0749186803F0AFFB01F0B3
:105D2C0038B800BF4C030020801A0600AC040020D9
:105D3C00400D0300C403002004000020082841F09B
:105D4C002880984B9849186803F074FB01F021B82F
:105D5C0005280ED1954B44F620625B68934203D81C
:105D6C00914A536001F015B8914B04221A7001F05E
:105D7C0010B8062802D18C4B5A6835E2072808D196
:105D8C00884B042218688B49801803F077FB01F0CC
:105D9C0000B8082840F0FD87824B0422186885491A
:105DAC00801803F047FB00F0F4BF05280DD17F4BA2
:105DBC00814A5B68934203D87B4A936000F0E9BF49
:105DCC007B4B04221A7000F0E4BF062802D1764BFC
:105DDC009A6809E2072808D1724B7849186804229E
:105DEC00083003F04BFB00F0D4BF082840F0D187FB
:105DFC006C4B724918680422083003F01BFB00F04E
:105E0C00C8BF05280DD1694B6B4A5B68934203D818
:105E1C00654A136100F0BDBF654B04221A7000F097
:105E2C00B8BF062802D1604B1A69DDE1072808D1FA
:105E3C005C4B634918680422103003F01FFB00F020
:105E4C00A8BF082840F0A587564B5D491868042266
:105E5C00103003F0EFFA00F09CBF05280CD15B6802
:105E6C00584A934203D8504AD36000F092BF504B2B
:105E7C0004221A7000F08DBF062802D14A4BDA6852
:105E8C00B2E1072808D1474B4F49186804220C305F
:105E9C0003F0F4FA00F07DBF082840F07A87414BFC
:105EAC004949186804220C3003F0C4FA00F071BFA1
:105EBC0005280DD13D4B434A5B68934203D83A4ABF
:105ECC00536100F066BF3A4B04221A7000F061BFB8
:105EDC00062802D1344B5A6986E1072808D1314B88
:105EEC003A4918680422143003F0C8FA00F051BF84
:105EFC00082840F04E872B4B344918680422143084
:105F0C0003F098FA00F045BF062840F04287FEF7F0
:105F1C004DFAE1E6052805D1244B5A68224B5A6606
:105F2C0000F037BF062802D11F4B5A6E5CE10728E0
:105F3C0008D11C4B264918680422643003F09EFAE1
:105F4C0000F027BF082840F02487164B204918681A
:105F5C000422643003F06EFA00F01BBF052804D154
:105F6C005A68114B1A6600F014BF062802D10E4B6A
:105F7C001A6E39E1072808D10A4B16491868042211
:105F8C00603003F07BFA00F004BF082840F0018772
:105F9C00044B104918680422603003F04BFA00F0EF
:105FAC00F8BE00BF04000020C40300204C030020F6
:105FBC00AC040020C8030020400D0300CC030020DB
:105FCC00D4030020A0860100D0030020D8030020B9
:105FDC002804002024040020062840F0DA8604F06F
:105FEC00DFFA79E6052805D1A14B586804F0E4FAEC
:105FFC0000F0CFBE062802D104F0D8FA6CE60728D0
:10600C0040F0C78604F0DEFA00F0C3BE052840F06D
:10601C00AC86FEF75BFA00F0BCBE052805D1944BAC
:10602C00586804F0F9FA00F0B4BE062802D104F066
:10603C00EDFA51E6072840F0AC8604F0F3FA00F0D4
:10604C00A8BE052840F09186FFF772F900F0A1BEBA
:10605C0005280CD1864B5B680A2B03D8854A9361C3
:10606C0000F097BE844B04221A7000F092BE0628F2
:10607C0002D1804B9A69B7E0072808D17F4B804941
:10608C0018680422183003F0F9F900F082BE0828D1
:10609C0040F07F86794B7A4918680422183003F057
:1060AC00C9F900F076BE05280CD1714B5B680A2B40
:1060BC0003D8704AD36100F06CBE6F4B04221A7087
:1060CC0000F067BE062802D16A4BDA698CE007281B
:1060DC0008D16A4B6B49186804221C3003F0CEF9C6
:1060EC0000F057BE082840F05486644B6549186888
:1060FC0004221C3003F09EF900F04BBE05280ED193
:10610C005B4B5A68012A05D81A795A4B83F8202020
:10611C0000F03FBE584B04221A7000F03ABE06281D
:10612C0004D1544B93F8202000F051BD072808D11E
:10613C00524B554918680122203003F09FF900F0AA
:10614C0028BE082840F025864C4B4F491868012280
:10615C00203003F06FF900F01CBE062840F01986C1
:10616C00FEF73EF9B8E5062840F01386FEF706F96F
:10617C00B2E5062840F00D86FEF706F9ACE50528D9
:10618C0011D13B4B49F64042586800F59C432033F3
:10619C00934203D8FEF71CFB00F0FBBD364B0422E8
:1061AC001A7000F0F6BD062840F0F385FEF7F2F801
:1061BC0092E5062840F0ED8503F0E6F88CE505281D
:1061CC000DD15B689A1F022A04D82A4A82F8213022
:1061DC0000F0DFBD284B04221A7000F0DABD06284F
:1061EC0006D1244B93F82120234B5A6000F0BFBDFD
:1061FC00072808D1214B254918680122213003F0CA
:10620C003DF900F0C6BD082840F0C3851B4B1F4963
:10621C0018680122213003F00DF900F0BABD0528F1
:10622C0013D1134A134B52683AB193F85D2042F0E4
:10623C00010283F85D2000F0ACBD93F85D2022F0E4
:10624C00010283F85D2000F0A4BD062805D1094B9E
:10625C0093F85D2002F00102C6E707281AD1074B1C
:10626C000B49186801225D3003F008F900F091BD6C
:10627C004C030020C4030020AC04002004000020C8
:10628C00DC030020E0030020E4030020E5030020F1
:10629C0021040020082840F07C859F4B9F491868FA
:1062AC0001225D3003F0C6F800F073BD052813D150
:1062BC009B4A9C4B52683AB193F85D2042F0020223
:1062CC0083F85D2000F065BD93F85D2022F002029A
:1062DC0083F85D2000F05DBD062805D1914B93F845
:1062EC005D20C2F340027FE7072808D18A4B8B4917
:1062FC00186801225D3003F0C1F800F04ABD08288F
:10630C0040F04785844B8549186801225D3003F0C5
:10631C0091F800F03EBD052813D1814A814B52689B
:10632C003AB193F85D2042F0040283F85D2000F04E
:10633C0030BD93F85D2022F0040283F85D2000F05C
:10634C0028BD062805D1774B93F85D20C2F3800257
:10635C004AE7072808D1704B7049186801225D3054
:10636C0003F08CF800F015BD082840F012856A4B3C
:10637C006A49186801225D3003F05CF800F009BD31
:10638C0005280ED15B68032B06D8654B1A79654B33
:10639C0083F8222000F0FDBC634B04221A7000F03D
:1063AC00F8BC062803D15F4B93F822201CE7072882
:1063BC0008D1594B5D4918680122223003F05EF870
:1063CC0000F0E7BC082840F0E484534B57491868A8
:1063DC000122223003F02EF800F0DBBC05280ED190
:1063EC004F4B5B68B3F5803F04D24E4AA2F8443061
:1063FC0000F0CFBC4C4B04221A7000F0CABC06282B
:10640C0003D1484BB3F84420EEE6072808D1424BA1
:10641C00474918680222443003F030F800F0B9BC48
:10642C00082840F0B6843C4B41491868022244309D
:10643C0003F000F800F0ADBC05280ED1384B5A68BB
:10644C00032A05D81A79374B83F8232000F0A1BC16
:10645C00354B04221A7000F09CBC062803D1314B3A
:10646C0093F82320C0E6072808D12B4B3149186834
:10647C000122233003F002F800F08BBC082840F016
:10648C008884254B2B4918680122233002F0D2FF57
:10649C0000F07FBC05280DD1214B5B68B3F5803F24
:1064AC0003D2204A536300F074BC1F4B04221A70B1
:1064BC0000F06FBC062802D11A4B5A6B94E60728E1
:1064CC0008D1154B1C4918680422343002F0D6FF51
:1064DC0000F05FBC082840F05C840F4B164918682C
:1064EC000422343002F0A6FF00F053BC05280DD175
:1064FC000B4B5B68B3F5803F03D20A4A936300F001
:10650C0048BC094B04221A7000F043BC062815D174
:10651C00044B9A6B68E600BF0400002021040020A5
:10652C004C030020C4030020AC040020E603002030
:10653C0008040020E7030020F8030020072808D1F6
:10654C00A44BA54918680422383002F097FF00F0DC
:10655C0020BC082840F01D849E4B9F4918680422DB
:10656C00383002F067FF00F014BC05280DD15B68D1
:10657C0044F62062934203D8984AD36300F009BCD6
:10658C00974B04221A7000F004BC062802D1934BDE
:10659C00DA6B29E6072807D18E4B9249186804223A
:1065AC003C3002F06BFFF4E3082840F0F283894B97
:1065BC008C49186804223C3002F03CFFE9E30528C2
:1065CC000BD1894B5B68012B03D8844A82F86D3060
:1065DC00DFE3834B04221A70DBE3062803D17F4BE5
:1065EC0093F86D2000E6072807D17A4B7F4918688D
:1065FC0001226D3002F042FFCBE3082840F0C98342
:10660C00744B7A49186801226D3002F013FFC0E315
:10661C00052804D1724B586802F0CAFDB9E306286C
:10662C0040F0B78302F088FDFFF756BB052804D174
:10663C006B4B586802F0C2FDABE3062840F0A9830F
:10664C0002F080FDFFF748BB052804D1644B586865
:10665C0002F0BAFD9DE3062840F09B8302F078FD22
:10666C00FFF73ABB052804D15D4B586802F0B2FD28
:10667C008FE3062840F08D8302F070FDFFF72CBBF2
:10668C00052804D1564B586802F0AAFD81E3062870
:10669C0040F07F8302F068FDFFF71EBB052804D194
:1066AC004F4B586802F0A2FD73E3062840F071834B
:1066BC0002F060FDFFF710BB052804D1484B586869
:1066CC0002F09AFD65E3062840F0638302F058FD62
:1066DC00FFF702BB052804D1414B586802F092FD2C
:1066EC0057E3062840F0558302F050FDFFF7F4BA4B
:1066FC00052804D13A4B586802F08AFD49E3062874
:10670C0040F0478302F048FDFFF7E6BA052804D1B4
:10671C00334B586802F082FD3BE3062840F0398386
:10672C0002F040FDFFF7D8BA062840F03283FDF79F
:10673C00A1FEFFF7D1BA062840F02B83FDF7A0FE8F
:10674C00FFF7CABA062840F02483FDF7B5FEFFF721
:10675C00C3BA062840F01D83FDF7AAFEFFF7BCBAAA
:10676C00062840F0168301F02FFD00B2FFF7B4BAF3
:10677C00052805D11C4B5A68184B83F85C2008E39C
:10678C00062803D1154B93F85C202DE5072807D17B
:10679C00104B1749186801225C3002F06FFEF8E2CA
:1067AC00082840F0F6820B4B1149186801225C3026
:1067BC0002F040FEEDE2062840F0EB82FDF748FEC9
:1067CC00FFF78ABA062840F0E482FDF747FEFFF790
:1067DC0083BA00BF04000020FC030020C403002087
:1067EC00AC040020000400204C03002031040020E5
:1067FC0020040020062840F0CC82FDF735FEFFF780
:10680C006BBA05280BD18C4B5B68B3F5803F02D279
:10681C008A4A1365BDE28A4B04221A70B9E2062833
:10682C0002D1864B1A6DDFE4072807D1854B8649C8
:10683C0018680422503002F021FEAAE2082840F029
:10684C00A882804B804918680422503002F0F2FD77
:10685C009FE205280AD15B68B3F5803F02D2774AE4
:10686C00536596E2764B04221A7092E2062802D106
:10687C00724B5A6DB8E4072807D1724B73491868EC
:10688C000422543002F0FAFD83E2082840F08182A1
:10689C006C4B6E4918680422543002F0CBFD78E240
:1068AC0005280BD1644B5B68B3F5803F02D2634A79
:1068BC0093656EE2624B04221A706AE2062802D1DA
:1068CC005E4B9A6D90E4072807D15E4B60491868BF
:1068DC000422583002F0D2FD5BE2082840F05982C5
:1068EC00584B5B4918680422583002F0A3FD50E263
:1068FC0005280BD1504B5B68B3F5803F02D24F4A51
:10690C00936246E24E4B04221A7042E2062802D1F0
:10691C004A4B9A6A68E4072807D14A4B4D491868D4
:10692C000422283002F0AAFD33E2082840F031821C
:10693C00444B484918680422283002F07BFD28E2B9
:10694C0005280BD13C4B5B68B3F5803F02D23B4A28
:10695C0093641EE23A4B04221A701AE2062802D102
:10696C00364B9A6C40E4072807D1364B3A491868E5
:10697C000422483002F082FD0BE2082840F0098224
:10698C00304B354918680422483002F053FD00E2C0
:10699C0005280BD1284B5B68B3F5803F02D2274A00
:1069AC00D364F6E1264B04221A70F2E1062802D1D8
:1069BC00224BDA6C18E4072807D1224B27491868B8
:1069CC0004224C3002F05AFDE3E1082840F0E1814A
:1069DC001C4B2249186804224C3002F02BFDD8E1E4
:1069EC0005280ED15A681E4902F5423303F5A863F7
:1069FC008B4202D8114B9A66CBE1114B04221A70D0
:106A0C00C7E1062803D10D4B9A6EFFF7EDBB0728A3
:106A1C0007D10C4B134918680422683002F02EFD84
:106A2C00B7E1082840F0B581064B0E4918680422DE
:106A3C00683002F0FFFCACE14C030020C4030020E2
:106A4C00AC040020040000201404002018040020D2
:106A5C001C040020EC0300200C0400201004002077
:106A6C00801A06002C04002005280CD18E4B42F213
:106A7C0010725B68934202D88C4AD38489E18C4BA8
:106A8C0004221A7085E1062804D1884BB3F926201C
:106A9C00FFF7AABB072807D1864B87491868022243
:106AAC00263002F0EBFC74E1082840F07281814B37
:106ABC00814918680222263002F0BCFC69E10528E5
:106ACC0008D1794B5A68794B003A18BF012283F8E8
:106ADC002F205EE1062803D1744B93F82F2076E02B
:106AEC00072807D1734B7549186801222F3002F023
:106AFC00C5FC4EE1082840F04C816E4B6F4918687C
:106B0C0001222F3002F096FC43E105280BD1664B95
:106B1C005B68022B03D8654A82F82E3039E1644B4E
:106B2C0004221A7035E1062804D1604B93F82E200C
:106B3C00FFF75ABB072807D15E4B61491868012241
:106B4C002E3002F09BFC24E1082840F02281594BA6
:106B5C005B49186801222E3002F06CFC19E1052803
:106B6C000BD1514B5B68B3F5803F02D24F4A136493
:106B7C000FE14F4B04221A700BE1062803D14B4B4B
:106B8C001A6CFFF731BB072807D14A4B4D491868DF
:106B9C000422403002F072FCFBE0082840F0F9803F
:106BAC00444B484918680422403002F043FCF0E0A2
:106BBC00052807D15A683D4B003A18BF012283F8CB
:106BCC003020E6E0062807D1384B93F83020003A05
:106BDC0018BF0122FFF708BB072807D1354B3A49EC
:106BEC0018680122303002F049FCD2E0082840F04D
:106BFC00D080304B344918680122303002F01AFC36
:106C0C00C7E005280BD1284B5B68012B03D8274A1A
:106C1C0082F83130BDE0264B04221A70B9E0062808
:106C2C0004D1224B93F83120FFF7DEBA072807D1A5
:106C3C00204B264918680122313002F01FFCA8E0D5
:106C4C00082840F0A6801B4B2049186801223130DF
:106C5C0002F0F0FB9DE005280BD1134B5868831E06
:106C6C00FC2B02D8FDF7BCFF93E0114B04221A70E9
:106C7C008FE0062804D10D4B93F82520FFF7B4BA0A
:106C8C00072807D10B4B124918680122253002F056
:106C9C00F5FB7EE008287CD1064B0D4918680122D3
:106CAC00253002F0C7FB74E04C030020C403002025
:106CBC00AC04002004000020EA030020F3030020B1
:106CCC00F203002004040020F4030020F50300204C
:106CDC00E9030020052808D12E4B5A682E4B003AA8
:106CEC0018BF012283F8242053E0062803D12A4B35
:106CFC0093F824206BE7072807D1284B28491868FC
:106D0C000122243002F0BAFB43E0082841D1234B86
:106D1C00234918680122243002F08CFB39E0052845
:106D2C0004D11C4A1C4B92889A8532E0062803D168
:106D3C00194B9A8DFFF758BA072807D1174B1949E9
:106D4C00186802222C3002F099FB22E0082820D18E
:106D5C00124B1449186802222C3002F06BFB18E01D
:106D6C00032200E00422104B1A70062811D10F4B9D
:106D7C001B7873B10C4B0E495A680E4B0A6022B942
:106D8C001A6842F008021A6003E01A6822F008023E
:106D9C001A6008BD4C030020C4030020040000202E
:106DAC00E8030020F0030020AC0400209004002035
:106DBC00B00300205403002008B5204B997811B182
:106DCC005B78032B36D11D4B5B780A2B30D8DFE870
:106DDC0003F006090C0F14171A1D22252A0002F0C5
:106DEC0077FA22E002F070FA1FE002F075FA1CE06C
:106DFC00124B586802F072FA17E002F015FA1CE018
:106E0C0002F01AFA19E002F01FFA0EE00B4B586868
:106E1C0002F078FA11E002F085FA06E0074B5868A8
:106E2C0002F086FA09E002F089FA054B586004E09A
:106E3C00032200E00422024B1A7008BD4C03002010
:106E4C00AC04002008B50B4B9A7872B95A7812B181
:106E5C00012A08D103E05868FDF7D0FC08E0586817
:106E6C00FDF7FCFC04E0032200E00422024B1A7044
:106E7C0008BD00BF4C030020AC04002010B5A94A8B
:106E8C00A94B107851686422232859601A705870E5
:106E9C0000F0F68053D8132800F0CB8028D80828AF
:106EAC0011D8052880F0B080022800F0A48003D807
:106EBC00012840F049819BE0032800F09F800428C2
:106ECC0040F042819DE00B2800F0A78006D80928ED
:106EDC0000F09D800A2840F037819BE00E2800F0DE
:106EEC00A2800F2800F0A2800C2840F02D8197E0A2
:106EFC001B2800F0B08011D8162800F0A38006D80B
:106F0C00142800F09980152840F01E8197E017286E
:106F1C0000F09B80182840F0178199E01F2800F0A2
:106F2C00A38006D81C2800F099801E2840F00C8104
:106F3C0097E0212800F09E8000F29F8097E0822845
:106F4C0000F0C58029D8432800F0AC8011D8402827
:106F5C0000F09F8006D8242800F09580272840F068
:106F6C00F38093E0412800F09780422840F0EC80B9
:106F7C0095E0462800F09F8006D8442800F09580C4
:106F8C00452840F0E18093E0802800F09A8000F2E0
:106F9C009B80472840F0D88090E0882800F0B6808D
:106FAC0011D8852800F0A48006D8832800F09280A0
:106FBC00842840F0C98090E0862800F0A1808728C2
:106FCC0040F0C280A5E08D2800F0B28006D8892858
:106FDC0000F0A2808C2840F0B780A0E0F22800F0EE
:106FEC00AD80FF2800F0AD808E2840F0AD80A2E08F
:106FFC00FEF728FDABE0FEF72DFDA8E0FEF71CFD2B
:10700C00A5E0FFF71FFFA2E0FEF72EFD9FE0FEF7C5
:10701C00E9FB9CE0FEF708FB99E0FEF7E7FA96E047
:10702C00FEF78AFA93E0FEF761FA90E0FEF726FA93
:10703C008DE002F0DDFC8AE002F0B8FD87E002F0A2
:10704C0043FE84E002F036FE81E002F097FE7EE023
:10705C0002F0ACFE7BE002F023FF78E002F0B8FE19
:10706C0075E002F0BBFE72E002F0D0FE6FE002F0C1
:10707C00FDFE6CE002F010FD69E003F035F866E00F
:10708C0003F026F863E002F065FD60E002F00AFC14
:10709C005DE000F0C5FA5AE000F0C4FA57E000F0E9
:1070AC00C3FA54E000F0C2FA51E000F0C1FA4EE02D
:1070BC0000F0C0FA4BE000F0BFFA48E000F0BEFA76
:1070CC0045E002F03FFC42E002F006FC3FE002F03B
:1070DC0015FC3CE002F018FC39E000F049FB134BC6
:1070EC001C7D02F051F90146204602F08BFD2EE08A
:1070FC0002F0A4FD00F034FB0020FDF769FB26E054
:10710C000A4B197D987802F081FF20E0FEF732F9E6
:10711C001DE002F099FD1AE002F0BEFF17E002F04C
:10712C0049FF14E04C030020AC040020BC040020F8
:10713C0002F00EFC0BE0FFF73FFE08E0FEF756F9FD
:10714C0005E0FEF745F902E0014B02221A7010BD72
:10715C00AC040020F0B5944B87B01B78044663B1A7
:10716C00924B1B78062B08D00A2B06D00F2B04D081
:10717C001F2B02D08E4B00221A708E4B1B78012BCA
:10718C004CD18B4A1278032A20D18B4B1B7893B9A4
:10719C008A4E8B4DB07877782A786B78C719BF18E0
:1071AC00EA79FF18AB79BF186A79FF182B79BF18E9
:1071BC00FF18FFB218E0012B30D10025814BE85CA1
:1071CC00013501F0A1FB092DF8D127E0042A25D1C6
:1071DC007A4E7B4DB27877781046D719013700225A
:1071EC002B706A60FFB26A7001F08EFB707801F050
:1071FC008BFB287801F088FB687801F085FBE87937
:10720C0001F082FBA87901F07FFB687901F07CFB2F
:10721C00287901F079FB384601F076FB6A4B1B7834
:10722C00012B5FD1624A1278072A35D1624B1B7849
:10723C002BBB624A624B5578967893F800E093F832
:10724C0001C0AF19D8797744997967445A79C7192D
:10725C001B79CF19D719DF198DF808708DF80060DC
:10726C008DF801508DF802E08DF803C08DF8040004
:10727C008DF805108DF806208DF8073009E0012BEC
:10728C0007D1013B4F4A995C0DF803100133092BD0
:10729C00F8D16846092123E0082A23D14749484AF6
:1072AC0091F801C091F802E000250EEB0C060136B6
:1072BC006846092155608DF802308DF803502F4631
:1072CC008DF804508DF805508DF806508DF8075048
:1072DC008DF80860557013708DF800E08DF801C0C2
:1072EC0001F08AFD394B34491A7800230B70304970
:1072FC000B7012B1012002F067F82E4B1B78012B9A
:10730C0075D10DF1170001F0D9FA00286FD001F0FA
:10731C00F1FA10B1264B00225A70254B9DF817003C
:10732C0059784A1CD2B2C918092A08715A7060D10E
:10733C00224A18795178002288425A7059D1134642
:10734C001B4D291D895C01325B18082ADBB2F7D171
:10735C002A7B9A4248D1154B697AAA7AEE7A6F79D0
:10736C0095F806E095F807C0287A1E7199715A7144
:10737C001F7083F801E083F802C0D87102F0FCFEA4
:10738C00134B144E1B783060591E13480022C9B29F
:10739C006A700270033201292A7021D9052B1FD083
:1073AC000E4B01251D7025E0880400204C030020A5
:1073BC001802002046000020B4030020BC0400206A
:1073CC00AC040020B80300204900002078090020FC
:1073DC0098040020A8040020B4040020900400208D
:1073EC005C4B00221A7004E004232B7001E0002592
:1073FC0000E00125584B1B78012B49D103A801F063
:10740C00E3FC002844D0554B9DF80C205B789A4245
:10741C0059D10022134603A9C95C01335218082B19
:10742C00D2B2F8D19DF814104D4C91422ED14D4B47
:10743C009DF811109DF812209DF80D609DF80EE03E
:10744C009DF80FC09DF810009DF8135099715A715A
:10745C001E701D7183F801E083F802C0D87102F030
:10746C008BFE414B41491B7808605A1E4049002055
:10747C00D2B208700721012A217003D9052B01D043
:10748C00012200E00022334B1A701CE023701AE03A
:10749C00CDB935490B78013BDBB2012B13D8012C4C
:1074AC0011D1344B1A68B2F5006F0BD8104601326B
:1074BC001A602C4902F0B4F9294B09221A70254B99
:1074CC001C7000E00D70284B1B78042B04D1254B4D
:1074DC0093F90030002B2EDA214B1B783BB1042B97
:1074EC0005D0082B03D0062B01D0FFF7C7FC1C4B93
:1074FC001B78092B05D11C4A1178022901D10331C3
:10750C0011701D4A12681AB3092B21D1164B1B7826
:10751C00012B1DD11749013B096809E0174850F8A8
:10752C0023000133814203D10F4B05221A700FE067
:10753C009342F3D30CE0FDF7C9F9094B1B783BB12F
:10754C00042B05D0082B03D0062B01D002F008FD2C
:10755C0007B0F0BD9004002049000020BC040020BE
:10756C00180200204C03002098040020A8040020DE
:10757C00B4040020580400209C0400205C0400206B
:10758C0073B5204B024640781F4D1870907800263A
:10759C005870D078EC46987010790C46D8715079A8
:1075AC00987192F806E095E8030083F805E0D2792B
:1075BC008CE803001A71154B1E70FFF75FFC144B1F
:1075CC001B7873B9637023702B78A3706B78E3709E
:1075DC00EB792371AB7963716B79A3712B79E371BF
:1075EC0008E0012B06D10B4B9B195B78A355013698
:1075FC00082EF8D1044B6A4692E8030083E8030096
:10760C007CBD00BF4C030020AC0400209004002083
:10761C00B4030020B8030020704700BF704700BFC0
:10762C00704700BF704700BF704700BF704700BF76
:10763C00704700BF704700BF704700BF704700BF66
:10764C000E4B10B50022012002214FF4FA744FF0BA
:10765C00080C5C6283F805C09860D9601A621A70D5
:10766C0058709970DA701A719A711A611A755A7584
:10767C009A75DA751A76DA6110BD00BFBC04002069
:10768C002D4B2DE9F0414FF4FA78C3F808804FF4F4
:10769C00FA68C3F814804FF00208C3F81C8008F194
:1076AC00040883F8218008F10208002201204FF41D
:1076BC007A654FF47A744FF0050C4FF4967740F2DC
:1076CC00DC5683F8258008F1C0081146DA6483F88B
:1076DC00222083F8232083F824209A629A8583F849
:1076EC003020A3F8442083F846209A64C3F810C0D5
:1076FC00C3F868809F631D645C659E6583F85C00BD
:10770C001D605D60C3F80CC0986183F82000DC84B8
:10771C0083F82E0083F82F005F63DE631C6583F80B
:10772C005D2083F83120054A83F86C101A6643F209
:10773C0090325A66BDE8F081C40300200039030082
:10774C00024B4FF400721A61704700BF00100140E9
:10775C00024B4FF400725A61704700BF0010014099
:10776C00024B4FF400521A61704700BF00100140E9
:10777C00024B4FF400525A61704700BF0010014099
:10778C00024B986800F40050704700BF0010014095
:10779C00014B10225A61704700080140014B102226
:1077AC001A61704700080140014B04221A617047AE
:1077BC00000C0140014B04225A617047000C01403F
:1077CC00054B9A6812F0040F02D004225A6101E0B2
:1077DC0004221A61704700BF000C0140014B2022AB
:1077EC001A617047000C0140014B20225A6170470E
:1077FC00000C0140704700BF704700BF704700BFCE
:10780C00704700BF704700BF704700BF704700BF94
:10781C00704700BF704700BF18B9024B4FF480523D
:10782C005A617047000C014018B9024B4FF480525A
:10783C001A617047000C014018B1012806D00020D5
:10784C0008E0054B9868C0F3400003E0024B9868D1
:10785C0000F00100704700BF000C014008B100208F
:10786C0003E0024B9868C0F300307047000C0140F5
:10787C00704700BF704700BF00207047704700BFC3
:10788C0008B508B1002003E0024B186800F08EF92F
:10789C0008BD00BF18000020094B10B59C6814F0FF
:1078AC00070401D0072C05D1012803D11F3001F0AA
:1078BC004BFD02E0202001F04FFD204610BD00BF23
:1078CC00000801402DE9F3414E4F01AD0420012188
:1078DC00032406F06DFA10264FF01803384629469B
:1078EC00ADF804308DF806408DF8076006F0A0FC6A
:1078FC00082001213E6106F05BFA41F23C4342480C
:10790C0029464FF00408ADF804308DF806408DF888
:10791C00076006F08DFC4FF400733B482946ADF828
:10792C0004308DF806408DF8078006F081FC482362
:10793C00294635488DF8073040F6030307F50067F4
:10794C00ADF804308DF8064006F072FC304601218B
:10795C0006F02EFA38464FF600232946ADF80430CF
:10796C008DF806408DF8076006F062FC4FF4A043DA
:10797C0038463B6129464FF48063ADF804308DF8EE
:10798C0006408DF8078006F053FC4FF03F03384655
:10799C0029460027ADF804308DF806408DF80770A5
:1079AC0006F046FC2020012106F002FA1748294671
:1079BC00ADF804808DF806408DF8076006F038FCB1
:1079CC003B46384610494FF480644C610A4689683E
:1079DC00013311F4006F4FF480611161926808BF9C
:1079EC00013712F4006F18BF01300A2BEAD10A2FAD
:1079FC0001D0002003E00A2814BF00200120BDE8BC
:107A0C00FC8100BF00080140000C01400014014043
:107A1C0007B500238DF8073004484FF03F0301A948
:107A2C00ADF8043006F004FC0EBD00BF00100140A0
:107A3C00704700BFFEE700BFFEE700BFFEE700BFD8
:107A4C00FEE700BF704700BF704700BF704700BF24
:107A5C00704700BF704700BF704700BF704700BF42
:107A6C00704700BF704700BF704700BF704700BF32
:107A7C00704700BF704700BF704700BF704700BF22
:107A8C00704700BF704700BF704700BF704700BF12
:107A9C00704700BF704700BF08B5024B1B68984782
:107AAC0008BD00BF5803002008B5024B1B6898475F
:107ABC0008BD00BFB8040020684620F00701044B45
:107ACC008D4601B51B689847BDE801408546704757
:107ADC008C04002008B5024B1B68984708BD00BFFA
:107AEC0094040020704700BF704700BF704700BF70
:107AFC00704700BF704700BF704700BF704700BFA2
:107B0C00704700BF704700BF704700BF704700BF91
:107B1C00704700BF704700BF704700BF704700BF81
:107B2C00704700BF704700BF704700BF704700BF71
:107B3C00704700BF704700BF704700BF704700BF61
:107B4C00704700BF704700BF704700BF704700BF51
:107B5C00704700BF704700BF704700BF684620F0F9
:107B6C0007018D4601B5002303E00B495958995084
:107B7C0004330A4A0A4998188842F6D3094B02E0A2
:107B8C00002243F8042B084A9342F9D3FCF708FB74
:107B9C00BDE80140854670474CF700080000002006
:107BAC008801002088010020D01B0020024B33F8F4
:107BBC00100080B2704700BF34020020024B03EB70
:107BCC0040031982704700BF34020020024B03EBC4
:107BDC004003188A704700BF3402002010B50A4CCD
:107BEC0024781CB9002914BF0A461A465021484370
:107BFC00064B424302991878039B002808BF0B469A
:107C0C0092FBF3F010BD00BF840900208609002010
:107C1C00A5234343044AA3F5A52310684FF48052CF
:107C2C00584390FBF2F070474C000020014B187049
:107C3C00704700BF86090020014B1870704700BFC9
:107C4C0084090020074B10B51B68074C34F813004F
:107C5C0080B2FFF7DDFF20220146206A03F018FCFA
:107C6C00206210BD2C00002034020020F8B5114B0E
:107C7C00114E1B68044636F8130080B2FFF7C8FF9C
:107C8C000E4B05461B6836F8130080B2FFF7C0FF99
:107C9C00064605FB05F006FB060077197F4207FB3D
:107CAC00070003F05BFBA680A06067802580204660
:107CBC00F8BD00BF28020020340200202C00002058
:107CCC00F8B5114B114E1B68044636F8130080B200
:107CDC00FFF79EFF0E4B05461B6836F8130080B26B
:107CEC00FFF796FF064605FB05F006FB0600771925
:107CFC007F4207FB070003F031FBA780A060668082
:107D0C0025802046F8BD00BF280200203402002048
:107D1C002800002038B5104C257885B1012D1AD1DA
:107D2C000E4B5B6A002BB8BF5B42B3F5E16F12DD03
:107D3C00FFF70EFD00232370094B1D700BE0074B62
:107D4C005B6AC733B3F5C77F05D8FFF7F9FC044A64
:107D5C0001231370237038BD8609002034020020E3
:107D6C00850900202DE9F74F534C00250746656225
:107D7C005248884692469946DDF834B005F078FBB7
:107D8C00C8F5E168404501D307241EE04C4B626AFC
:107D9C001B68002A34F8130004EB43010B8A80B2F1
:107DAC00B8BF5242C01A80EAE073A3EBE07393426F
:107DBC000E9BC8BF606251460193CDF800B04A4695
:107DCC000C9BFFF70BFF062405463C4805F054FBC3
:107DDC00404501D3002621E03A4A374B1268596AD4
:107DEC0033F8120003EB4206328A80B2801A81EA21
:107DFC00E172A2EBE17280EAE071A1EBE0719142D9
:107E0C00C8BF58620E9BCDF800B0019351464A464C
:107E1C000C9BFFF7E3FE24F002040646274805F00E
:107E2C002FFB404502D34FF0000822E0264A224B9C
:107E3C001268596A33F8120003EB420CBCF810209C
:107E4C0080B2801A81EAE172A2EBE17280EAE07101
:107E5C00A1EBE0719142C8BF58620E9BCDF800B007
:107E6C00019351464A460C9BFFF7B8FE24F00404DC
:107E7C008046022C07D0042C09D0012C0BD108EB26
:107E8C0006056D4207E008EB0506764203E006EBBB
:107E9C000508C8F1000805FB05F006FB060008FB09
:107EAC00080003F05BFAA7F80480B8607E803D8080
:107EBC003846BDE8FE8F00BF34020020002C014084
:107ECC0028020020280000202C00002070B590B063
:107EDC00FFF79EFD0120014605F05CFF01214FF4E8
:107EEC00007005F065FF414806F074FB404B002420
:107EFC000093404B0726019380230593DB180693D0
:107F0C0003F540730793A3F57873384869460893D3
:107F1C0003F5FF5309930294039604940A9406F014
:107F2C00C9FB0121314806F0F5FB01254FF4602314
:107F3C0031480BA90D930B948DF830508DF83140CE
:107F4C000E948DF83C6006F035FC2C4B2A481978C1
:107F5C002A46032306F0B0FC294B02221978264846
:107F6C00032306F0A9FC274B032219782248134659
:107F7C0006F0A2FC244B042219781F48032306F0B8
:107F8C009BFC224B052219781B48032306F094FC1A
:107F9C001F4B062219781848032306F08DFC1D4B45
:107FAC00324619781448032306F086FC2246124800
:107FBC004FF4FC6106F042FC0F48294606F034FCF5
:107FCC000D48294606F026FC0B4806F041FC0A48F1
:107FDC0006F044FC0028FAD1074806F043FC06489A
:107FEC0006F046FC0028FAD110B070BD0800024023
:107FFC004C240140340200200024014020000020C9
:10800C00210000202200002023000020240000205A
:10801C002500002026000020F0B544698569034640
:10802C006543881A4FF47A7C002895FBFCF6B8BFA0
:10803C004042B042B8BF0CFB00F5104E4FF47A7CB6
:10804C0030682D1895FBFCF00CFB105737600CB901
:10805C00114611E0914205DA1B6841189942A8BFFC
:10806C00194609E008DD064A1B6895FBF2F569180C
:10807C005B429942B8BF19460846F0BD5C0200202D
:10808C0018FCFFFF2DE9F047044690F821000D463F
:10809C00062816469846DDF820A027681ED10868E9
:1080AC00014606F029FF3E4906F026FF814694F86A
:1080BC002500400806F0CCFE0146484606F01CFFA1
:1080CC00636981467820584306F0C2FE0146484653
:1080DC0006F0C6FF07F0D6F8034611E0072801D0DA
:1080EC0000230DE00868014606F006FF2D4906F056
:1080FC00B7FF07F0C7F8236C6269434393FBF2F3B5
:10810C00C245C8EB0A08B8BF7F42B8F1000FB8BF30
:10811C00C8F100084FF480409845D8BF002701F003
:10812C0023F9012803D1304606F092FE31E038469F
:10813C0006F08EFE2E6880464146304607F07AF8EF
:10814C0070B1A069636937B90B225043584306F0EC
:10815C007BFE154917E0584306F076FE134912E0F2
:10816C004146304607F084F8A0B1A069636937B97D
:10817C000B225043584306F067FE0D4903E0584369
:10818C0006F062FE0B4906F06BFF0146304606F026
:10819C00ABFD2860286807F075F8BDE8F08700BFD4
:1081AC000000C0400000F04200401C4600007A4431
:1081BC0000401CC600007AC4024B00229A601A6070
:1081CC005A60704760020020014BB3F90C007047F5
:1081DC006002002070B546680446154608463246D3
:1081EC0071421E4603F034F9636B00B2B3607368DE
:1081FC00A16B451BE818F1603560706011B1104B34
:10820C0093FBF1F10A46494203F022F90346F06868
:10821C00B168326858434A434FF4803190FBF1F017
:10822C00A1F57F4192FBF1F2801830617360A1F5EA
:10823C00014147F6FF7203F00BF900B270BD00BFAD
:10824C000000FF7F2DE9F04F87B0A44DBDF84040F2
:10825C00BDF842C02C82A5F812C0044628699B4682
:10826C00DDF84C808A469146149E02F08DFEC0F3D8
:10827C000F43ADF81230ADF81000049BB8F8007045
:10828C006B6194F82130072B25D0082B00F0FD8171
:10829C00062B40F0588202F087FA94F8313085B200
:1082AC00012B0AD194F8251018984908E26902F0BC
:1082BC0055FA02F00FFA4519ADB294F82430012B9F
:1082CC0003D105F5FE45FF35ADB22DB2284602F0BF
:1082DC0039FA0020ADE102F0BDFB012840F0C3816A
:1082EC004FF4007001F040F8012801D1179B5BB9E5
:1082FC004FF4006001F038F8012840F0B181D8F853
:10830C000030002B00F0AC8194F82E00012800F016
:10831C00468104D30228714D40F08F815DE06F4B94
:10832C0042F210715A6801328A425A6025D8E56BC4
:10833C00B4F86E305543B3F5007FB5FBF1F5ADB233
:10834C0002D0B3F5806F02D12BB2C8F800300020F8
:10835C0002F0F8F9002002F08DFB0021604802F0D9
:10836C00B7FD02A9C0F30F43ADF808000422304654
:10837C00ADF80A3006F0EAFBFCE100225A60104628
:10838C0002F070FB94F82E302BB994F8463043F081
:10839C00010384F8463094F82E30022B05D194F862
:1083AC00463043F0020384F846304C4B4FF000014A
:1083BC0059831983584600F07BFA504600F078FA3E
:1083CC00159A16990023002013600B6002F03CFBF9
:1083DC004FF4004000F0B8FFB3E12B68032B00F220
:1083EC00B081DFE803F00241B5B56B6842F2107260
:1083FC009342DFF8E8B02AD8E56B01335D43CBF844
:10840C0004300020B5FBF2F502F09CF9002002F0DC
:10841C0031FB00210BF1140002F05AFD0422C0F3D1
:10842C000F43ADF8080002A93046ADF80A3006F04B
:10843C008DFBB4F86E30ADB2B3F5007F03D0B3F55D
:10844C00806F40F097812BB2C8F8003092E1002089
:10845C0002F008FB94F8463043F0020384F84630EF
:10846C000123CBF800306CE1AD6894F8252085EA47
:10847C00E5705208A0EBE570C2EB02418842174B45
:10848C0063DAA16EE769C1EBC1314F435743B4F8CE
:10849C006E201448B2F5007F97FBF0F702D0B2F5CE
:1084AC00806F11D1169B0021D3F800B0584606F00E
:1084BC00DFFE08B1ED1B05E05846002106F0BAFEC0
:1084CC00A8B17D19054B11E0B2F5006F0FD1D8F8AA
:1084DC000020002A08DDED1B08E000BF6002002030
:1084EC0074020020C027090001D07D199D609F4FA8
:1084FC000020A58F02F026F9B86802F0BBFAB7F994
:10850C00081007F1140002F0E3FC0422C0F30F433F
:10851C00ADF8080002A93046ADF80A3006F016FB9B
:10852C00B4F86E30B3F5007F02D0B3F5806F02D192
:10853C002BB2C8F8003094F8467017F0020740F0E0
:10854C0019818A4B02221A6015E103221A60F8E0A5
:10855C004FF0000129836983584600F0A9F9504671
:10856C0000F0A6F9159900232A680B601699022AC7
:10857C000B6005D1002002F067FA4FF4004000E0D8
:10858C0080207A4D00F0E0FE002002F0DBF8A868B5
:10859C0002F070FAB5F9081005F11400D6E0FFF7F7
:1085AC007BF9724D01468046287F02F099F885F8D8
:1085BC001C801FFA80F802F0F7F805B2284602F08A
:1085CC00C1F818F4004F03D005F5D445AA3507E0DF
:1085DC00B8F1000F00F0F68005F5144505F5AA7505
:1085EC00B4F9400094F8253045435B0895FBF3F053
:1085FC004FF6FF7390FBF3F080B202F047FA02F0F3
:10860C0057FA5A4B4FF000025A831A8305465846C4
:10861C0000F04EF9504600F04BF9002002F014FA2D
:10862C004FF4004000F090FE05F5004501352DB2E9
:10863C00284602F01FFA294675E005F114000021C6
:10864C0002F046FC0027C0F30F43ADF8080002A966
:10865C0030460422ADF80A303D4606F077FA8AE03F
:10866C000021434872E002F023FA94F82E3000F512
:10867C0000450135012BADB203D102F095F800B2E3
:10868C0000E0002002F05EF8D1E7E269169994F858
:10869C0025304FEA0238086803FB08F806F0F2FDB3
:1086AC000028B8BF404200FB08F82B6A40F2DC52AD
:1086BC0098FBF2F89844642398FBF3F203FB1283C3
:1086CC00169A2B62D2F800B0002158464FF00005E4
:1086DC0006F0CEFD08B14FF00105EDB225B1234BEC
:1086EC006FF063019A8907E05846002106F0A2FD5D
:1086FC0038B11E4B64219A8998FBF1F89044A3F889
:10870C000C801A4BB3F80C8015B108F5804806E0C4
:10871C005846002106F08EFD18B1A8F580481FFAC6
:10872C0088F80FFA88F1124802F0D2FB02A9C0F3C4
:10873C000F43ADF8080004223046ADF80A3006F0BD
:10874C0005FA002517E005F11400002102F0C0FB2A
:10875C000025C0F30F43ADF8080002A930460422EF
:10876C00ADF80A302F4606F0F1F904E06002002063
:10877C0074020020002739B25346B6F90020204677
:10878C00FFF728FD134F4B46388329B2B6F9022068
:10879C002046FFF71FFD788307F1180002F0F4FA6A
:1087AC0007F1180002F016FBC0F30F43ADF8000000
:1087BC00ADF80230009B18467B6201F0F9FC07B063
:1087CC00BDE8F08F01F0F0FF00F5FE40FF3085B200
:1087DC002AE700BF60020020F8B50668044615467B
:1087EC000846324671421E4602F032FE636D451B4E
:1087FC00B360A36D1D49F3600746356028464FF6FC
:10880C00FF7202F025FE03467068F1681818336099
:10881C00706019B163681B0493FBF1F10A4649427D
:10882C0002F016FE0346F068B168326858434A43BA
:10883C004FF4803190FBF1F0A1F57F4192FBF1F206
:10884C0080183061736094F82130082B08D1002F08
:10885C0001DDE06B09E016BFE06B3846404204E0F6
:10886C0061680A46494202F0F3FDF8BD0100FFFFC2
:10887C0070B5066D1D4604469E60881A0023EB6099
:10888C0028600A494FF6FF7202F0E2FD0346A86821
:10889C004FF48072584390FBF2F028612B602168F2
:1088AC000A46494202F0D4FD70BD00BF0100FFFF33
:1088BC000023036103604360704700BF094B1968D4
:1088CC005A68914201D100200BE01A68D118097A3C
:1088DC00013201701A601A68202A01D100221A6034
:1088EC000120704788020020014B9862704700BF3E
:1088FC0088020020034B1A78104612B100221A701D
:10890C00012070478809002038B50B4B8446DC6A7F
:10891C001A6B0134202C08BF002494420AD0DD6A63
:10892C000648ED1885F834C040F227710122DC624C
:10893C0003F0D8FF38BD00BF88020020004800407B
:10894C0038B50546002401E0FFF7DEFF2B5D01344E
:10895C001846002BF8D138BD70B5294C238813F07C
:10896C00200F1AD0FEF788FF08B1A38815E0254B1D
:10897C005A6819680132202A08BF00228A4205D0A1
:10898C005968A088C918C0B208725A601E4B0A22D6
:10899C001A601C4B9A6A1D4B1A60194E338813F0DF
:1089AC00800F1BD0194B1C68C4B9164DEA6A2B6B8F
:1089BC009A420DD0FEF75CFF2B6B5A1992F83420BB
:1089CC000133B2802B632B6B202B07D12C6305E07A
:1089DC003046224640F2277103F084FF0848038892
:1089EC0013F0400F0AD040F2266104F073F8054BE7
:1089FC001A6BDB6A9A4201D1FEF73CFF70BD00BFD7
:108A0C0000480040880200208C09002090090020BA
:108A1C0030B5054687B0544804F0ACF84FF48020CC
:108A2C00012105F0D3F90820012105F0C1F9082036
:108A3C00002105F0D9F94D48002105F089FC06AC60
:108A4C004FF4806324F8043D0323494821468DF8F4
:108A5C00163015338DF8173005F0EAFB0423444823
:108A6C008DF8173021464FF40063ADF8143005F043
:108A7C00DFFB684603F000FF0B2D25D8DFE805F07F
:108A8C002406090C0F1215181B1E20224FF46153DB
:108A9C001CE04FF4964319E04FF4E14316E04FF419
:108AAC00164313E04FF4614310E04FF496330DE09E
:108ABC004FF4E1330AE04FF4613307E02D4B05E04E
:108ACC002D4B03E02D4B01E04FF41653694626481D
:108ADC00009304F007F827230024012504A88DF83F
:108AEC00103005238DF811308DF812408DF813508D
:108AFC0005F02CFA1C4840F2FF3103F0C7FF282187
:108B0C002246194803F0EEFE2A46174840F2277118
:108B1C0003F0E8FE2A46144840F2266103F0E2FE18
:108B2C002A46114840F2255103F0DCFE22460E483D
:108B3C0040F2244103F0D6FE22460B4840F6460193
:108B4C0003F0D0FE2246084840F66A1103F0CAFE34
:108B5C0060212246044803F0C5FE2946024803F072
:108B6C00B3FE07B030BD00BF004800401000140039
:108B7C00000C014090D0030020A1070040420F00E0
:108B8C00014B03221A607047DC020020044A054B9B
:108B9C00927A0AB1052200E001221A60704700BFE8
:108BAC00A4090020DC020020704700BF014B00220A
:108BBC005A607047DC02002008B5074B1A6892B265
:108BCC0042F008021A601A6892B242F004021A606B
:108BDC00FFF7D6FF08BD00BF405C004010B5064C47
:108BEC004FF6FB73226802EA03032360FFF7CEFF04
:108BFC004FF40643236010BD405C0040072818BFAB
:108C0C001F4B10B51E4C18BF18702378052B33D88A
:108C1C00DFE803F003060A0E1621FFF7DFFF2BE057
:108C2C00FFF7DCFF042328E002236370013324E008
:108C3C006378013BDBB263706378FBB9042218E004
:108C4C00104B1A6892B242F010021A60052323707E
:108C5C00DB18637012E06378013BDBB263706378FE
:108C6C0063B9084A4FF6EF73116801EA0303136006
:108C7C000622034B1A7001E00623237010BD00BFBF
:108C8C00080A0020405C0040034B9B7A13B1034B55
:108C9C0005221A60704700BFA4090020DC020020E6
:108CAC00014B04221A607047DC020020034B1A7A35
:108CBC00202A01D100221A72704700BFDC0200206A
:108CCC00704700BF212808B508D1124B1B681B78D0
:108CDC0003F07F03212B1AD10F4B0EE0202816D165
:108CEC000C4B0E4A1B681B7810720D4A03F07F0365
:108CFC00212B0CBF134600234BB1064A4FF0000149
:108D0C0012680020518293619847002000E00220F5
:108D1C0008BD00BF040A0020658D0008DC0200209D
:108D2C00818D0008074B1B681B7803F07F03212BF8
:108D3C0005D1022801D0222801D1002000E0022018
:108D4C00704700BF040A002019B9012801D8084651
:108D5C0000E00220704700BF28B9044B4FF0080216
:108D6C001B681A8200E00248704700BF040A00200A
:108D7C005000002028B9044B4FF008021B681A82DF
:108D8C0000E00248704700BF040A00205000002099
:108D9C000B4B10B5DA6882B11B68052B01D0002291
:108DAC000BE0002303E00749595CC154013304492B
:108DBC00CC68A342F7D30023CB60104610BD00BF94
:108DCC00DC020020100A0020084BDB68082B01D8BD
:108DDC0000200AE00023064A9A5CC2540133092B96
:108DEC00F9D1024B0022DA6001207047DC0200202E
:108DFC00100A0020704700BF10B5074C0B468AB212
:108E0C00C021636002F0A2FF0120A18802F0CAFD1C
:108E1C00012002F095FC10BDDC02002008B5064BC9
:108E2C001B68DB78042B01D9002004E0034901EB1B
:108E3C00C30103F0EBF908BD040A00205800002020
:108E4C0008B5024903F0E2F908BD00BF7800002024
:108E5C0008B5024903F0DAF908BD00BF8000002014
:108E6C00334B10B51B686FF03F0200245A72DC7252
:108E7C009C72204602F0DCFB20464FF4007102F09D
:108E8C00F5FB1021204602F007FC4021204602F0A1
:108E9C005DFD8021204602F049FD204602F086FC53
:108EAC00244B204693F8641002F09EFD204602F0FD
:108EBC0055FC0120214602F0D9FB0120C02102F013
:108ECC0035FD0120202102F0E7FB0120214602F0B4
:108EDC00FBFB02204FF4C06102F0C8FB02204FF4F0
:108EEC00807102F023FD0220214602F0EDFB0220EE
:108EFC00202102F0D1FB0320214602F0B7FB032016
:108F0C004FF4887102F022FD0320402102F06CFD29
:108F1C0003204FF4405102F0D7FB2146032002F00E
:108F2C00BBFB204603F080F9034B01221A6010BDF5
:108F3C00040A002050000020DC02002008B5174B6A
:108F4C00174A196889B2118016491288098801EAF2
:108F5C00020212F4806F05D04FF6FF321A60124BEA
:108F6C00DB6B98470E4B1A880E4B1B8803EA0202E8
:108F7C0012F4007F08D009490C4A4FF6FF500860E4
:108F8C00117C0131C9B21174054A1288134013F4D3
:108F9C00004F01D002F046FF08BD00BF445C00400A
:108FAC0096090020500A002050000020DC0200200E
:108FBC0010B5032002F048FD064C034602464FF460
:108FCC0088710548E36002F0D9FE032002F0C6FB6D
:108FDC0010BD00BFDC020020100A002008B5064AB4
:108FEC00064B20B11068198805F08AF903E0106867
:108FFC00198805F083F908BDA00900209C09002000
:10900C0038B5064D01232B60054B002420461C600F
:10901C00FFF7E4FF03232B60204638BD405C004083
:10902C00445C004008B5FFF7EBFF08BD08B5012014
:10903C00FFF7D4FF064B0121196006494FF4E052AB
:10904C000A8005490020186008601A6008BD00BF3E
:10905C00405C0040500A0020445C0040084B10B5B6
:10906C001B6800249C72FFF7E1FF064A4FF406438D
:10907C001460043A1360044A1460044A138010BD4F
:10908C00040A0020445C0040DC020020500A00204E
:10909C0007B5142200238DF8042001A801228DF8B5
:1090AC0006308DF807208DF8053004F04FFF0EBD0B
:1090BC00002008B504F0F2FD4FF40000012104F08B
:1090CC0085FE08BDF7B5184C184E194F194D9DF873
:1090DC0020C031602A8038600999302204F17E006A
:1090EC0084F8723084F873C005F030FD0A991822A8
:1090FC0004F1B20005F02AFDFFF7DAFFFFF7C8FF15
:10910C0002F054FF3868012104F052FE03232D882D
:10911C008DF8063030680D3301A9ADF804508DF888
:10912C00073005F085F8FEBD50000020A009002096
:10913C000C0A00209C090020014B1868704700BFE6
:10914C00181A0020014B1868704700BF101A002035
:10915C00014B1868704700BF0C1A0020014B1868AF
:10916C00704700BF041A0020014B1868704700BFFD
:10917C00141A0020014B1868704700BFF819002022
:10918C00014B1868704700BF001A0020014B18688B
:10919C00704700BFFC190020014B1868704700BFD6
:1091AC00081A0020014B1868704700BF540A0020B1
:1091BC00014B1860704700BF181A0020014B186053
:1091CC00704700BF101A0020014B1860704700BF99
:1091DC000C1A0020014B1860704700BF041A0020C5
:1091EC00014B1860704700BF141A0020014B186027
:1091FC00704700BFF8190020014B1860704700BF82
:10920C00001A0020014B1860704700BFFC190020A9
:10921C00014B1860704700BF081A0020014B186002
:10922C00704700BF540A0020024B00225A600132E2
:10923C001A707047F0020020024B00225A601A701C
:10924C00704700BFF0020020014B1878704700BF38
:10925C00F0020020014B5868704700BFF00200205C
:10926C0008B5064B00215A6899600132B2F5FA7FB5
:10927C005A6001D1FFF7E0FF08BD00BFF0020020EB
:10928C0013B50E4B6A4682E803000D499A680C68C8
:10929C000132A24201469A6001980DDB1A785AB14C
:1092AC005B68B3F5FA7F07DA064A02EBC304606029
:1092BC0042F83310FFF7D4FF1CBD00BFF0020020B2
:1092CC0080010020580A00204FF4FA70704700BF4C
:1092DC004FF47A60704700BF02207047B0F5FA7FF8
:1092EC000CDA11B1012909D103E0054B53F8300018
:1092FC0005E0034B03EBC000406800E00020704722
:10930C00580A0020012804D0022802D0044B18B9B6
:10931C0000E0034BD86001E00022DA60704700BF28
:10932C00F0020020014BD868704700BFF00200200B
:10933C00014B1860704700BF80010020014B18687A
:10934C00704700BF80010020024B1A6840EA0202FD
:10935C001A60704700030020024B1A6822EA0002D0
:10936C001A60704700030020034B1B6818420CBFA7
:10937C0000200120704700BF0003002008B56D20BD
:10938C00FFF7EAFF08BD00BF034B10B51C68FFF7E1
:10939C00F5FF204610BD00BF00030020034B10B5A5
:1093AC001C68FFF7EBFF04F06F0010BD00030020FA
:1093BC0062B6704772B6704708B5FEF7D9F908BDAA
:1093CC0008B5FEF7CDF908BD08B510B104F05CFE88
:1093DC0001E004F061FE08BD07B5104B1B78E3B14A
:1093EC00FEF718FAFEF7E0F9FEF7FEF9002301E0AC
:1093FC00019B01330193019A094B9A42F8D9FEF76C
:10940C00D9F9FEF7EBF9002301E0019B013301933D
:10941C00019A034B9A42E3D8F7E70EBDB50300203F
:10942C003F0D030008B5FEF74DFA014B187008BD4F
:10943C00B503002070B5044600200E4615460321E6
:10944C00024601F07FFE0020C4F30721024601F022
:10945C0079FE0020E1B2024601F074FE002407E020
:10946C00944214BF0022012201F06CFE30550134ED
:10947C0000206A1EAC420146F2D370BD2DE9F041CA
:10948C0004460F46164600200621012201F05AFE22
:10949C0000200521024601F055FE00200122014664
:1094AC0001F050FE10F0020FF2D000200221024613
:1094BC0001F048FE0020C4F30721024601F042FEF1
:1094CC000020E1B2024601F03DFE002543E00134EC
:1094DC0014F03F08795D01D1012204E0721E95421F
:1094EC0014BF00220122002001F02CFEB8F1000F65
:1094FC0030D1731E9D422DD200200521024601F071
:10950C0021FE00200122014601F01CFE10F001009A
:10951C00F2D10621012201F015FE002005210246A0
:10952C0001F010FE00200122014601F00BFE10F0AC
:10953C00020FF2D000200221024601F003FE0020AF
:10954C00C4F30721024601F0FDFD0020E1B2024602
:10955C0001F0F8FD0135B542B9D3002005210246D2
:10956C0001F0F0FD00200122014601F0EBFD10F0AE
:10957C00010FF2D1BDE8F08110B5044600200321A3
:10958C00024601F0DFFD0020C4F30721024601F082
:10959C00D9FD0020E1B2024601F0D4FD00200146C5
:1095AC00012201F0CFFD10BD38B5012204460D4655
:1095BC000020062101F0C6FD00200521024601F025
:1095CC00C1FD00200122014601F0BCFD10F0020F8C
:1095DC00F2D000200221024601F0B4FD0020C4F3B9
:1095EC000721024601F0AEFD0020E1B2024601F077
:1095FC00A9FD29460020012201F0A4FD002005212F
:10960C00024601F09FFD00200122014601F09AFD67
:10961C0010F0010FF2D138BD38B50725454305F5DB
:10962C0000650C46284609780135FFF7BDFF284632
:10963C0061780135FFF7B8FF2846A1780135FFF7AF
:10964C00B3FF284621790135FFF7AEFF2846617933
:10965C000135FFF7A9FF2846A179FFF7A5FF681C84
:10966C00E179FFF7A1FF38BD37B507254543002049
:10967C000C460246032101F065FD05F5006500204E
:10968C00C5F30721024601F05DFD0020E9B2024658
:10969C0001F058FD00200146024601F053FD8DF803
:1096AC00000000200146024601F04CFD8DF801003F
:1096BC0000200146024601F045FD8DF80200002015
:1096CC000146024601F03EFD8DF8040000200146E3
:1096DC00024601F037FD8DF80500002001460246D8
:1096EC0001F030FD8DF8060000200122014601F04A
:1096FC0029FD2368009A23F07F4322F07F429A428F
:10970C008DF8070001D0002005E0636801989842AD
:10971C0014BF002001203EBD38B5214B1C683BE036
:10972C0000200621012201F00DFD0020052102463A
:10973C0001F008FD00200122014601F003FD10F0AC
:10974C00020FF2D000200221024601F0FBFC0020A7
:10975C00C4F30721024601F0F5FC0020E1B20246F9
:10976C0001F0F0FC002500203F2D14BF0022012247
:10977C000146013501F0E6FC402DF4D10020052115
:10978C00024601F0DFFC00200122014601F0DAFC68
:10979C0010F0010FF2D14034B4F5804FC0D338BD76
:1097AC0010000020194B70B5054618680C46FFF7E1
:1097BC00E3FE174B1B78834202D1164B1B78BBB1CF
:1097CC00124E00213068FFF7EFFEFFF7A5FF124B9A
:1097DC00294618682822FFF751FE104B21461868BD
:1097EC007422FFF74BFE0A4B30681978FFF7DCFE4A
:1097FC00094B294618682822FFF71CFE074B214607
:10980C0018687422FFF716FE70BD00BF0C00002014
:10981C0000000020B5030020880100200400002077
:10982C0038B50725454300200C460246032101F0BC
:10983C0089FC05F500650020C5F30721024601F0FF
:10984C0081FC0020E9B2024601F07CFC00200146BC
:10985C00024601F077FC207000200146024601F020
:10986C0071FC607000200146024601F06BFCA07098
:10987C0000200146024601F065FC207100200146E3
:10988C00024601F05FFC607100200146024601F0C7
:10989C0059FCA07100200146012201F053FCE0713B
:1098AC0038BD00BF084B9A7852B95B78142B05D899
:1098BC00064A1168064A42F8231004E0032200E02D
:1098CC000422044B1A7070474C030020B003002094
:1098DC005C030020AC040020054B01205A7805499C
:1098EC008242087002D15A68034B1A60704700BF5D
:1098FC004C0300209804002058040020014B022245
:10990C001A70704798040020074A00231360074A16
:10991C001370074A1360074A1360074A1370074A0B
:10992C001360074A1360704754030020980400200A
:10993C0058040020A004002048030020B00300209D
:10994C00E4040020014B00221A7070479804002098
:10995C0030B5234B5B78032B3ED8DFE803F00802CD
:10996C002F39204B18681E4B5C68002322E01D4ADF
:10997C001368092B07D81A491B484C68591C40F826
:10998C00234011602BE0092227E052F82350591C88
:10999C00A5420ED102EB810204E052F8041C013303
:1099AC0042F8081C411E04328B42F6D30D4B196051
:1099BC0015E00B4683420C4AE7D310E0094A00231A
:1099CC001360094A002199500433282BF9D106E081
:1099DC00064B0A225A6002E00322044B1A7030BD77
:1099EC004C0300209C0400205C040020AC040020EC
:1099FC00264A274B5278092A3BD8DFE802F0050AA1
:109A0C000F141A22282E343720491A6849688A18EC
:109A1C002EE01E4A196852688A1A29E01B4A1968F6
:109A2C0052684A4324E0194A1968526891FBF2F2D1
:109A3C001EE0164A1968526891FBF2F002FB1012F4
:109A4C0016E012491A68496801EA020210E00F494F
:109A5C001A68496841EA02020AE00C491A68496826
:109A6C0081EA020204E01A68D24301E0074A526814
:109A7C001A60074A074B12681AB91A6842F00802B2
:109A8C0002E01A6822F008021A6070474C030020AA
:109A9C00B0030020540300202A4A2B4B52780A2A88
:109AAC0043D8DFE802F0060B11161C242A30363A94
:109ABC003D0026491A6809688A1803E0234A196888
:109ACC0012688A1A1A6030E0204A196812684A43F0
