:020000040800F2
:104000000050002075C30008719F0008759F0008CC
:10401000799F00087D9F0008819F00080000000034
:10402000000000000000000000000000899F000860
:10403000859F0008000000008D9F0008A1E1000896
:10404000919F0008959F0008999F00089D9F000878
:10405000A19F0008A59F0008A99F0008AD9F000828
:1040600031790008B19F0008B59F000800000000EA
:104070000000000000000000000000000000000040
:104080000000000000000000D59F0008D99F000834
:10409000E99F0008F99F000815A00008A179000811
:1040A00025A0000829850008B18100080000000053
:1040B0004D7E0008E5780008B17D000829A00008C1
:1040C0002DA0000831A0000835A0000839A0000884
:1040D0003DA0000841A0000845A0000899A00008E4
:1040E00049A000084DA0000851A0000800000000F1
:1040F00000000000000000000000000000000000C0
:0C41000000000000000000005FF800005C
:1041100030BF704720BF704740BF7047BFF36F8FFD
:104120007047BFF34F8F7047BFF35F8F704701DF5A
:104130007047EFF31480704780F31488BFF36F8FDC
:104140007047EFF30980704780F309887047EFF3F9
:104150000880704780F30888704772B6704762B66F
:10416000704771B6704761B6704780F31188704729
:10417000EFF31280704740BA704700BA70470000F2
:1041800038B506F0C9FD424B00254FF480301D7054
:1041900006F0E2FD06F046FF0128044627D1102074
:1041A00006F0CCFA022006F0B1FA284606F024FE0A
:1041B000284606F035FE4FF4806006F027FE4FF4E7
:1041C00080304FF4E01106F0F3FD204606F0FCFDD0
:1041D000392006F011FF0028FAD0022006F0FAFD7F
:1041E00006F002FE0828FBD1294B01221A7001209B
:1041F000014606F0B7FE4FF480414FF0006006F034
:10420000ADFC4FF4407006F00BFC2249224A234BD0
:104210001160234A234C136001222270224A234D4D
:104220001360234A13600BF071F80BF09BF800F059
:10423000ADF80AF0AFFF0BF053FA09F0F5FF0BF001
:104240003BF8287809F060FDE87809F0D5FC237880
:104250000BB105F071FE04F03BFB01F03BFA0BF0F3
:10426000BBFA40F2127009F01FFF40F2167009F01D
:104270008BFF104809F018FE02F030FE04F0D8FB66
:1042800003F0DCFE0BF0AAFA09F0ECFEF4E700BF45
:1042900068090020B99D0008740900200573000812
:1042A0006009002050090020540900200800002067
:1042B0005C0900204C00002070B5314B86B01B78A3
:1042C000044683420D46164633D02E48002106F0A0
:1042D00017FF4FF00003ADF804304FF48273ADF8D0
:1042E00006304FF00003ADF808304FF00203ADF890
:1042F0000A304FF00103ADF80C304FF40073ADF805
:104300000E304FF00003ADF81230ADF8143014B990
:104310004FF0100301E04FF018031A4801A9ADF85F
:10432000103006F0B1FE1748012106F0E9FE144BEB
:104330001C7014B1032C20D102E0134B10225A61DF
:104340001048022106F070FF0028F9D029460D48D8
:1043500006F00EFF0B48012106F066FF0028F9D099
:1043600036B114B1032C08D102E0074B10221A61B8
:10437000044806F0FFFEC0B200E0002006B070BDA9
:10438000640200200030014000080140F0B54FF405
:10439000805087B0012106F0E5FD264F012001463F
:1043A00005AE06F0DFFD18244FF0A00203253146CC
:1043B0003846ADF814208DF816508DF8174006F0E9
:1043C000C9F94FF0400331463846ADF814308DF846
:1043D00016508DF8174006F0BDF90120002106F0B7
:1043E00049FA154E4FF48272ADF802204FF00202E6
:1043F0000023012530466946ADF806204FF40072CF
:10440000ADF81030ADF80030ADF80430ADF80A204A
:10441000ADF80E30ADF80C40ADF8085006F034FEA3
:104420003046294606F06CFE044B4FF0FF321A70FE
:1044300007B0F0BD000801400030014064020020D8
:1044400008B5A64A9378002B40F03F845378A32BFD
:1044500000F07A8200F28380822B00F09D813CD8AC
:10446000092B00F0488119D8042B00F00C8109D8E1
:10447000012B00F0FE80002B00F0F680022B40F0B4
:104480002084FBE0062B00F01681C0F00081072B92
:1044900000F01E81082B40F0148427E1192B00F056
:1044A00043810BD80B2B00F02F81C0F028810C2BFF
:1044B00000F02F810E2B40F004842FE11C2B00F024
:1044C0004E8103D81A2B40F0FC833AE11D2B00F0FB
:1044D00053811E2B40F0F58351E18F2B00F0A48116
:1044E0001ED8872B00F080810BD8842B00F05D81D3
:1044F000C0F05681852B00F05D81862B40F0E18372
:1045000065E18C2B00F0818103D8882B40F0D983A2
:104510006EE18D2B00F07E818E2B40F0D2837EE108
:104520009E2B00F0B1810ED8952B00F08E8103D820
:10453000922B40F0C6837BE19A2B00F09B819B2B52
:1045400040F0BF839BE1A02B00F0B681C0F09F81BB
:10455000A12B00F0BC81A22B40F0B383DAE1EA2B5F
:1045600000F0B2823ED8AD2B00F06C821BD8A82B95
:1045700000F050820BD8A52B00F01482C0F0FD8112
:10458000A62B00F01D82A72B40F09B832DE2AA2BC7
:1045900000F04982C0F04282AB2B00F04982AC2B84
:1045A00040F08F8349E2E12B00F071820BD8AF2BF2
:1045B00000F05382C0F04B82B02B00F05482B12B3C
:1045C00040F07F8355E2E72B00F06C8203D8E62BA6
:1045D00040F0778360E2E82B00F06A82E92B40F03C
:1045E00070836BE2F42B00F0E1821BD8EF2B00F01C
:1045F0008F820BD8EC2B00F07282C0F06A82ED2B18
:1046000000F07382EE2B40F05C8374E2F12B00F03B
:10461000A382C0F08A82F22B00F0AC82F32B40F030
:104620005083B5E2FA2B00F009830ED8F72B00F087
:10463000DB8203D8F52B40F04483C4E2F82B00F072
:10464000E182F92B40F03D83EAE2FD2B00F0148378
:1046500003D8FB2B40F03583FDE2FE2B00F01A83DC
:10466000FF2B40F02E8326E31C4B586802F084FF9A
:104670002EE31A4B586803F055FE29E3174B586890
:1046800003F018F824E35268154B1A6020E3154B29
:104690001B68012B0BD1114B5B68B3F5616F02DC1A
:1046A0000F4A536014E3104B04221A7010E30E4BB0
:1046B00008221A700CE30B4B1B68012B04D1074B2B
:1046C0005A68074B9A6003E3074B08221A70FFE20F
:1046D000024B5A68024BDA60FAE200BFD0080020B1
:1046E0004C0000200000002044090020854B5A683F
:1046F000854B1A61ECE25268834B9A61E8E2814B88
:104700005A68814B5A61E3E27E4B5A687E4BDA610C
:10471000DEE27C4B5A687C4B1A62D9E2794B5A68CC
:10472000794BC3F8DC20D3E2784B1B68012B04D112
:104730005268754BC3F8D420CAE2754B08221A7030
:10474000C6E2724B1B68012B05D16E4B5A686E4B4B
:10475000C3F8D020BCE26E4B08221A70B8E26B4B53
:104760001B68012B04D1674B586809F0FBFCAFE2D2
:10477000674B08221A70ABE203F0C8F8A8E2634B5B
:104780001B68012B04D15F4B586809F053FC9FE272
:104790005F4B08221A709BE252685B4B5A6297E2A9
:1047A000584B5A68584B9A6292E2564B5A68564B8D
:1047B000DA628DE2554B1B68012B04D1514B5A68CC
:1047C000514B5A6384E2524B08221A7080E24F4BDD
:1047D0001B68012B04D14B4B5A684B4B9A6377E211
:1047E0004B4B08221A7073E25268474B1A636FE210
:1047F000464B1B68012B04D1424B5A68424BDA638B
:1048000066E2434B08221A7062E23E4B5A683E4B06
:104810001A645DE23B4B5A683B4B5A6458E2394B91
:104820005A68394B9A6453E25268374BDA644FE264
:10483000344B5A68012A04D81A79334B83F8502034
:1048400046E2334B04221A7042E2304B1B68012BC4
:104850000CD12C4B5A68022A04D81A792A4B83F8B7
:10486000562035E22A4B04221A7031E2284B0822E6
:104870001A702DE2234B586802F052FE28E2214BB9
:10488000586802F063FE23E203F04CF820E21F4B6D
:104890001B68012B0CD11B4B5A68062A04D81A79C5
:1048A000194B83F8512013E2194B04221A700FE2BE
:1048B000174B08221A700BE2144B1B68012B02D114
:1048C00002F088FF04E2124B08221A7000E20F4B3C
:1048D0001B68012B11D10B4A0B4B526832B193F874
:1048E000CD2042F0010283F8CD20F1E193F8CD20F4
:1048F00022F0010283F8CD20EAE1054B08221A706C
:10490000E6E100BFD00800204C000020000000209D
:10491000440900208A4B1B68012B11D1894A8A4B1C
:10492000526832B193F8CD2042F0020283F8CD20D4
:10493000CEE193F8CD2022F0020283F8CD20C7E12A
:10494000824B08221A70C3E17D4B1B68012B10D1EA
:1049500052687D4B32B193F8CD2042F0040283F8C7
:10496000CD20B5E193F8CD2022F0040283F8CD20CC
:10497000AEE1764B08221A70AAE1714B1B68012B3D
:104980000CD1704B5A68032A04D81A796E4B83F8FD
:1049900052209DE16D4B04221A7099E16B4B082265
:1049A0001A7095E1664B1B68012B05D1654B5A685F
:1049B000654BC3F898208BE1644B08221A7087E19D
:1049C0005F4B1B68012B0CD15E4B5A68032A04D83D
:1049D0001A795D4B83F853207AE15C4B04221A70FC
:1049E00076E15A4B08221A7072E1554B1B68012B75
:1049F0000CD1544B5A68022A04D81A79524B83F8C6
:104A0000692065E1514B04221A7061E14F4B082285
:104A10001A705DE152684C4BDA6659E1494B5A68AD
:104A2000494B1A6754E1474B5A68474B5A674FE165
:104A3000444B5A68444B9A674AE1424B5A68424B8E
:104A4000DA6745E15268404BC3F8802040E13D4BB6
:104A50005A683D4BC3F884203AE13A4B5A683A4BC6
:104A6000C3F8882034E1374B5A68374BC3F88C20A1
:104A70002EE1334B1B68012B05D1324B5A68324B68
:104A8000C3F8902024E1314B08221A7020E15268CB
:104A90002D4B83F8CC201BE12A4B5A682A4BC3F8D4
:104AA000A82015E1274B5A68274BC3F8AC200FE12B
:104AB000244B5A68244BC3F8B02009E1214B5A68B3
:104AC000214BC3F8B42003E152681F4BC3F8B82050
:104AD000FEE01C4B5A681C4BC3F8BC20F8E0194B95
:104AE0005A68194BC3F8C020F2E0164B5A68164BAF
:104AF000C3F8C420ECE0124B1B68012B04D1114B0E
:104B00005A68114B1A66E3E0104B08221A70DFE076
:104B10000B4B1B68012B04D152680B4BC3F8A02030
:104B2000D6E00A4B08221A70D2E0054B1B68012B15
:104B30000ED1044B5A68044BC3F8A420C8E000BF50
:104B400000000020D00800204C0000204409002074
:104B5000604B08221A70BBE05F4B1B68012B05D12C
:104B60005E4A5F4B9288A3F85820B1E0594B082267
:104B70001A70ADE0584B1B68012B05D1574A584BB2
:104B80009288A3F85C20A3E0524B08221A709FE0A1
:104B9000514B1B68012B05D1504A514B9288A3F809
:104BA0005A2095E04B4B08221A7091E04A4B1B6843
:104BB000012B04D14A4B9288A3F85E2088E0454B34
:104BC00008221A7084E0444B1B68012B08D1434B28
:104BD0005A68434B003A18BF012283F8672077E0F8
:104BE0003C4B08221A7073E03B4B1B68012B05D12C
:104BF0003A4B5A683A4BC3F8C82069E0354B082253
:104C00001A7065E0344B354A5968526835488A4213
:104C1000026002D101221A605AE000221A6057E0B5
:104C20002D4B1B68012B05D12C4B5A682C4B83F85C
:104C300066204DE0274B08221A7049E0264B1B687E
:104C4000012B04D15268264BC3F8942040E0214B3D
:104C500008221A703CE0204B1B68012B08D11F4B27
:104C60005A681F4B003A18BF012283F868202FE0D2
:104C7000184B08221A702BE0174B1B68012B05D12B
:104C8000164B5A68164B83F8552021E0114B082229
:104C90001A701DE0104B1B68012B08D10F4B5A688E
:104CA0000F4B003A18BF012283F8542010E0094B43
:104CB00008221A700CE0094A094B9288A3F8642074
:104CC00006E0044B03221A7002E0024B04221A7021
:104CD00008BD00BF4409002000000020D0080020CB
:104CE0004C0000206802002008B5A14B9A78002AE9
:104CF00040F0ED815A78A72A00F0318163D8842AE8
:104D000000F0FC8033D80B2A00F0DA8012D8072A92
:104D100000F0CA8008D8052A00F0C08000F2C180E7
:104D2000042A40F0D281B6E0092A00F0C38000F2E4
:104D3000C480BCE01A2A00F0D18009D80E2A00F005
:104D4000C580192A00F0C6800C2A40F0BE81BAE066
:104D50001E2A00F0CA8003D81C2A40F0B681C1E0A8
:104D6000822A00F0C580832A40F0AF81C3E08F2AF9
:104D700000F0DC8012D8882A00F0CC8005D8862A82
:104D800000F0C28000F2C380BBE08D2A00F0C88032
:104D900000F2C9808C2A40F09881BEE0A32A0CD88A
:104DA000A12A80F0CF80952A00F0C6809F2A00F0CB
:104DB000C680922A40F08981BBE0A52A00F0C98014
:104DC00000F2CA80C2E0EB2A00F041812CD8AF2A61
:104DD00000F021810FD8AB2A00F0118105D8A92A53
:104DE00000F0C38000F20881BCE0AD2A00F00D8124
:104DF00000F20E8106E1E62A00F01A8108D8B12AF5
:104E000000F00F81C0F00A81E12A40F05E810BE1E1
:104E1000E82A00F01381C0F00E81E92A00F0118128
:104E2000EA2A40F052810FE1F42A00F02D8115D8D2
:104E3000EF2A00F01A8105D8ED2A00F00F8100F268
:104E4000118107E1F12A00F01681C0F01181F22AE8
:104E500000F01481F32A40F0388112E1FA2A00F0C0
:104E6000208109D8F72A00F01581F92A00F016816F
:104E7000F52A40F02A810AE1FD2A00F0198103D8C1
:104E8000FB2A40F0228110E1FE2A00F01481FF2A63
:104E900040F01B8113E14020364913E1442036499C
:104EA00001E148203549FEE04C203549FBE0502027
:104EB0003449F8E058203449F5E054203349F2E011
:104EC0005C203349EFE060203249ECE04FF48E7013
:104ED0003149E8E04FF48A703049E4E04FF48870DB
:104EE0002F49E0E009F044F9F4E009F0A9F8F1E015
:104EF00064202C49D7E068202B49D4E06C202B4952
:104F0000D1E074202A49CEE078202A49CBE07020F5
:104F10002949C8E07C202949C5E080202849C2E011
:104F200084202849BFE088202749BCE08C202749FD
:104F3000B9E090202649C0E096202649BDE09120A6
:104F40002549BAE040F20D102449B6E092202449E8
:104F5000B3E0D8202349A6E093202349ADE0A9205F
:104F60002249AAE0AC2022499DE0B02021499AE0E4
:104F7000D00800204C0000205000002054000020E9
:104F8000580000205C000020640000206000002029
:104F9000680000206C000020280100202001002073
:104FA0001C01002070000020740000207800002008
:104FB00080000020840000207C0000208800002069
:104FC0008C00002090000020940000209800002019
:104FD0009C000020A20000209D000020190100205C
:104FE0009E000020E40000209F000020B50000206B
:104FF000B8000020BC000020B420374953E0B8209E
:10500000364950E0BC2036494DE0C02035494AE0E1
:10501000C420354947E0C820344944E0CC20344915
:1050200041E0D02033493EE04FF48670324944E0FD
:10503000E820324937E0EC20314934E0F0203149B2
:1050400031E0F42030492EE0F82030492BE0FC20FC
:105050002F4928E04FF480702E4924E04FF48270ED
:105060002D4920E0A0202D491DE0E0202C491AE028
:10507000E4202C4917E098202B4922E09C202B4962
:105080001FE09A202A491CE09E202A4919E0A72007
:10509000294912E04FF48470284904E0A6202849E9
:1050A0000BE02849D42004220CE0A820264904E083
:1050B0009520264901E026499420012202E0254955
:1050C000A42002220AF07AF904E0032200E004227C
:1050D000214B1A7008BD00BFC0000020C400002092
:1050E000C8000020CC000020D0000020D400002008
:1050F000D8000020DC00002018010020F40000206F
:10510000F8000020FC000020000100200401002025
:10511000080100200C01002010010020AC0000203C
:10512000EC000020F0000020A4000020A8000020D7
:10513000A6000020AA000020B300002014010020D7
:10514000B2000020E0000020B4000020A1000020F8
:10515000A0000020B00000204409002008B5A34BA7
:105160009A78002A40F059825A78A82A00F0A7813C
:1051700063D8852A00F013812DD80B2A00F0EA802D
:1051800012D8072A00F0D08008D8052A00F0BC8089
:1051900000F2C280042A40F03E82B2E0092A00F008
:1051A000CE8000F2CF80C7E01A2A00F0E68009D84E
:1051B0000E2A00F0D580192A00F0D6800C2A40F083
:1051C0002A82CAE0832A00F0E48000F2E580822A85
:1051D00040F02182DAE0922A00F03A8115D88C2A38
:1051E00000F0F88008D8872A00F0E980C0F0DF805E
:1051F000882A40F01082E5E08E2A00F0F180C0F0AD
:10520000EC808F2A40F00782EDE0A32A09D8A12A7A
:1052100080F02C81952A00F01E819F2A40F0FB81AE
:105220001CE1A52A00F03381C0F02981A62A00F0F4
:105230003681A72A40F0EF8139E1EC2A00F079812C
:105240002DD8B02A00F053810FD8AC2A00F043814A
:1052500005D8AA2A00F0398100F23A8132E1AE2A5B
:1052600000F03F8100F2408138E1E72A00F05281EE
:1052700009D8E12A00F04681E62A00F04881B12AE7
:1052800040F0C98136E1E92A00F04A81C0F0458149
:10529000EA2A00F04881EB2A40F0BD8146E1F42A79
:1052A00000F0778110D8F02A00F0598105D8EE2A55
:1052B00000F0478100F24C813FE1F22A00F05C816E
:1052C0004B4B00F2608151E1FA2A00F07F8109D84E
:1052D000F72A00F06C81F92A00F07181F52A40F07C
:1052E0009A815DE1FD2A00F0808103D8FB2A40F01D
:1052F000928173E1FE2A00F07F81FF2A40F08B81CA
:1053000083E140203B4983E1394B1B68012B40F08E
:105310007A81442038495FE1354B1B68012B40F00E
:1053200072814820354957E1314B1B68012B40F011
:105330006A814C2032494FE1502032494CE15820DB
:10534000314949E12A4B1B68012B40F05C81542014
:105350002E4941E15C202E493EE160202D493BE190
:105360004FF48E702C4937E1214B1B68012B40F024
:105370004A814FF48A7029492EE11D4B1B68012B8D
:1053800040F041814FF48870254925E1642025498A
:1053900022E1682024491FE16C2024491CE1144BC0
:1053A0001B68012B40F02F817420214914E1104B20
:1053B0001B68012B40F0278178201E490CE17020EA
:1053C0001D4909E10A4B1B68012B40F01C817C2020
:1053D0001A4901E180201A49FEE084201949FBE0C6
:1053E00088201949F8E08C201849F5E0D008002001
:1053F000000000204C00002050000020540000203D
:10540000580000205C0000206400002060000020A4
:10541000680000206C0000202801002020010020EE
:105420001C01002070000020740000207800002083
:1054300080000020840000207C00002088000020E4
:105440008C00002090000020940000209800002094
:105450009020744959E09620734956E0734B1A68BE
:10546000012A40F0D08091207149D1E06F4B1B6838
:10547000012B40F0C88040F20D106E4945E06B4BA7
:105480001A68012A40F0BF8092206B49C0E0674B48
:105490001B68012B40F0B780D82068499CE0634B23
:1054A0001A68012A40F0AF8093206549B0E05F4B55
:1054B0001A68012A40F0A780A9206249A8E0AC2020
:1054C000614989E0B020614986E0B420604983E009
:1054D000B820604980E0BC205F497DE0C0205F4982
:1054E0007AE0C4205E4977E0C8205E4974E0CC20B1
:1054F0005D4971E04D4B1B68012B40F08480D0204A
:105500005A4969E05A494FF48670012280E0E82048
:10551000584961E0EC2058495EE0F02057495BE0D3
:10552000F420574958E0F820564955E0FC205649E8
:1055300052E04FF4807055494EE04FF48270544968
:105540004AE03A4B1B68012B5DD1A020514943E052
:10555000364B1B68012B56D1E0204F493CE0334BC2
:105560001B68012B4FD1E4204C4935E01B68012B0F
:1055700049D198204A494AE02C4B1B68012B42D163
:105580009C20484943E01B68012B3CD19A204649A6
:105590003DE0264B1B68012B35D19E20434936E068
:1055A000224B1A68012A2ED1A720414930E01F4B17
:1055B0001B68012B27D14FF484703E490CE01B4B34
:1055C0001A68012A1FD1A6203B4921E0174B1B680E
:1055D000012B18D13949D420042219E0134B1A6841
:1055E000012A10D1A820364912E0104B1A68012A6E
:1055F00009D1952033490BE00C4B1A68012A02D1DE
:105600009420314904E0082208E03049A420022215
:1056100009F0B0FE04E0032200E004222C4B1A70D3
:1056200008BD00BF9C000020A20000200000002058
:105630009D000020190100209E000020E4000020B1
:105640009F000020B5000020B8000020BC00002012
:10565000C0000020C4000020C8000020CC000020B2
:10566000D0000020D4000020D8000020DC00002062
:1056700018010020F4000020F8000020FC000020A9
:105680000001002004010020080100200C0100207E
:1056900010010020AC000020EC000020F0000020F1
:1056A000A4000020A8000020A6000020AA000020DE
:1056B000B300002014010020B2000020E000002010
:1056C000B4000020A1000020A0000020B0000020B5
:1056D000440900201C4900230B601C491C4A0B6034
:1056E0001C4910B50B60137253601B4A002199507E
:1056F0000433B3F5806FF8D1184B1B68012B0CD025
:1057000040F21A74164920460919042209F032FEA3
:10571000043440F25A739C42F4D1124B1B7E63B99D
:1057200040F21A740E4920460919042209F022FE9B
:10573000043440F2FA739C42F4D10A4A044B527D7D
:1057400002B101225A7210BD300900204C0900201C
:1057500068020020D8080020D004002000000020AB
:10576000B6FDFF1F0800002010B57C4B987818B1DB
:10577000022840F0EE80DAE05A784C2A00F0878068
:105780001ED8442A55D00CD8412A3FD003D8402AED
:1057900040F0DD8036E0422A3FD0432A40F0D780F7
:1057A00041E0472A57D005D8452A48D0462A40F03C
:1057B000CE804AE0492A54D04B2A40F0C8805BE0B2
:1057C000532A00F08E800CD8502A6CD003D84D2A72
:1057D00040F0BD8061E0512A6BD0522A40F0B78082
:1057E00079E0832A00F0968005D8552A7FD05A2A7E
:1057F00040F0AD8085E0842A00F09180FF2A40F0DF
:10580000A68091E0197940F2FF7003E01B79544AB9
:105810001946137009F068FE9EE01B79504A19463C
:1058200001205370F6E71B794D4A19460420137185
:10583000F0E75B684A491C2041F81C3F66E01B7991
:10584000474A194605205371E4E75B6844490C2038
:1058500041F80C3F5AE05B684149082041F8083F95
:1058600054E01A793E4B12B13E4901224A60DA7582
:105870003B4B1720D97DCDE71B79394C03201946C6
:10588000E37009F031FEE07808F0B6F964E01B79C6
:10589000334A194602209370BCE71B79304A1946F7
:1058A00015205375B6E71B792D4A194616209375B6
:1058B000B0E72B4A127D12F0010F05D01B7913F0CF
:1058C000010F01D109F0C8FE244B254A1B79142091
:1058D000194613759EE75B682149202041F8203F57
:1058E00014E05B681E49102041F8103F0EE05A6832
:1058F000012A2ED81B791A49182001F8183F0122D5
:1059000005E05B681649242041F8243F042209F091
:1059100055FD21E0134B5A68134BDA601CE0114B24
:105920005A68124B1A6017E01A79114B13E05A7833
:105930000F2A05D80F490968012903D0082209E078
:10594000372A04D859680C4B43F8221004E003228C
:1059500000E00422034B1A7010BD00BFD0080020E5
:1059600008000020440900206802002040090020AF
:105970003D09002000000020D00400202DE9FF4157
:105980007D4C7E4D237862686421212B29706B70D9
:105990006A6000F0A8875DD80E2B00F054852BD8E4
:1059A000062B00F0EF8011D8032B00F0C08006D842
:1059B000012B00F0B080022B41F00282B0E0042BFA
:1059C00000F0BA80052B41F0FB81D1E0092B00F0FB
:1059D000188407D8072B00F00C84082B41F0F081C5
:1059E00000F00BBC0B2B00F0E084C0F00E840C2BFD
:1059F00041F0E68100F0F5BC172B00F0B88613D813
:105A0000142B00F0E38507D80F2B00F04085132BF3
:105A100041F0D68100F08ABD152B00F0FE85162BD3
:105A200041F0CE8100F09EBE1C2B00F00A8707D803
:105A3000182B00F0A9861B2B41F0C28100F0B0BEEC
:105A40001F2B00F0158700F23A871E2B41F0B8811A
:105A500000F0FBBE802B01F012802DD8412B00F00E
:105A6000F98713D8242B00F0B18707D8222B00F038
:105A7000A087232B41F0A48100F0A1BF272B00F0C9
:105A8000D287402B41F09C8100F0E1BF442B00F015
:105A9000EA8707D8422B00F0E087432B41F0908142
:105AA00000F0DEBF462B00F0E487C0F0DF87472B15
:105AB00041F0868100F0E0BF872B01F0728013D89F
:105AC000832B00F0F08707D8812B00F0DC87822B36
:105AD00041F0768100F0E3BF852B01F00080284B78
:105AE00001F2018000F0ECBF8C2B01F0BD8007D8E3
:105AF000882B01F03580892B41F0628101F094B848
:105B0000F22B01F01F81FF2B01F04F818D2B41F013
:105B1000578101F0CEB8104601F0CCFD01F053B929
:105B2000154B5868404201F0C5FD01F04CB900200A
:105B300001F0C0FD01F047B9A378A3B90E4B5A7824
:105B400012B1012A0AD104E0586801F015FD01F0F4
:105B50003AB9586801F044FD01F035B9074B03220A
:105B60001A7001F030B9054B04221A7001F02BB9FC
:105B7000FEF766FC01F027B9D00800204409002098
:105B800008000020A378002B40F01A836378FF2BD5
:105B900000F21383DFE813F00001040108010C0197
:105BA0001001140118011C012001240128012C01FD
:105BB00030013401380111031103110311031103E2
:105BC0003D01590176017B011103800185018A01A4
:105BD0008E0111039201110311031103110311032B
:105BE0001103110311031103110311031103110315
:105BF0001103110311031103110311031103110305
:105C000011031103110311031103110311031103F4
:105C100011031103110311031103110311031103E4
:105C200011031103110311031103110311031103D4
:105C300011031103110311031103110311031103C4
:105C400011031103110311031103110311031103B4
:105C500011031103110311031103110311031103A4
:105C60001103110311031103110311031103110394
:105C70001103110311031103110311031103110384
:105C80001103110311031103110311031103110374
:105C900011031103110311031103110396019A015A
:105CA0009E01A201A601AA01AE0111031103110375
:105CB000B201B601BA01BE0111031103C201110301
:105CC0001103CA01CF01D301D801DD01E101E501D2
:105CD000E90111031103ED01F201F601FD010402D6
:105CE0000B02100215021A021F02230227023002C1
:105CF000340238023D02420247024C0211031103F2
:105D000011031103110311031103110311031103F3
:105D1000110311035102550259025D02610265022D
:105D200069026D021103110371027502110311035F
:105D3000110311031103110311037902110311035C
:105D400011031103110311031103110311031103B3
:105D5000110311031103110311037D028202860254
:105D60008A028E02920297029C02A102A602AB0254
:105D7000B002B502BA02BE02C302C802CD02D2020C
:105D8000D702DC021103E402E902ED02F202F7029B
:105D90001103FF0204030C0301F00CFB686011E225
:105DA00001F01CFB68600DE201F01EFB686009E277
:105DB00001F020FB686005E28D4B1B686B6001E21F
:105DC0008B4B5B686B60FDE1894B9B686B60F9E115
:105DD000874BDB686B60F5E1854B1B696B60F1E11C
:105DE000834B9B696B60EDE1814B5B696B60E9E123
:105DF0007F4BDB696B60E5E17D4B1B6A6B60E1E12A
:105E000001F0E4FA6860DDE1794BD3F8DC306B60D7
:105E1000D8E1774B93F8530010F0010002D109F05C
:105E200095FA50B1724B93F8533013F0010F08D02C
:105E3000002009F08BFA012803D16E4B01225A6031
:105E4000C0E16C4B00225A60BCE1694B93F85330BF
:105E500013F0020F03D1012009F078FA50B1644B1E
:105E600093F8533013F0020F08D0012009F06EFAB6
:105E7000012803D15F4B01225A60A3E15D4B002250
:105E80005A609FE1002008F011F868609AE1012053
:105E900008F00CF8686095E1554BD3F8D4306B608E
:105EA00090E1534BD3F8D0306B608BE108F04EF9A2
:105EB000686087E108F050F9686083E108F0B4F8A1
:105EC00068607FE14A4B5B6A6B607BE1484B9B6A91
:105ED0006B6077E1464BDB6A6B6073E1444B5B6B55
:105EE0006B606FE1424B9B6B6B606BE1404B1B6BDC
:105EF0006B6067E13E4BDB6B6B6063E13C4B1B6CA3
:105F00006B605FE13A4B5B6C6B605BE1384B9B6CA9
:105F10006B6057E1364BDB6C6B6053E1344B93F8AD
:105F20005030003B18BF01236B604BE1304B93F8BE
:105F300056306B6046E101F063FA686042E103208D
:105F400009F030F868603DE1042009F02BF8686042
:105F500038E101F05BFA686034E101F031FA686021
:105F600030E101F021FA68602CE101F08FFB6860FC
:105F700028E11F4B93F851306B6023E101F03CFCAA
:105F800068601FE11A4B93F8CD3003F001036B609A
:105F900018E1174B93F8CD30C3F340036B6011E168
:105FA000134B93F8CD30C3F380036B600AE1104BC1
:105FB00093F852306B6005E10D4BD3F898306B606D
:105FC00000E10B4B93F853306B60FBE0084B93F808
:105FD00069306B60F6E0064BDB6E6B60F2E0044B01
:105FE0001B6F6B60EEE0024B5B6F6B60EAE000BF23
:105FF0004C00002044090020934B9B6F6B60E1E054
:10600000914BDB6F6B60DDE08F4BD3F880306B60C2
:10601000D8E08D4BD3F884306B60D3E08A4BD3F853
:1060200088306B60CEE0884BD3F88C306B60C9E071
:10603000854BD3F890306B60C4E009F0E1FB6860F9
:10604000C0E009F0E3FB6860BCE009F0E5FB6860D4
:10605000B8E009F0E7FB6860B4E009F0E9FB6860CC
:10606000B0E009F0EBFB6860ACE009F0EDFB6860C4
:10607000A8E009F0EFFB6860A4E001F089FB68602C
:10608000A0E001F08BFB68609CE001F063FB6860BE
:1060900098E06D4B93F8CC306B6093E001F060FBBF
:1060A00068608FE001F062FB68608BE001F064FBE8
:1060B000686087E001F066FB686083E0624BD3F8BC
:1060C000A8306B607EE0604BD3F8AC306B6079E059
:1060D0005D4BD3F8B0306B6074E05B4BD3F8B430F9
:1060E0006B606FE0584BD3F8B8306B606AE0564B8A
:1060F000D3F8BC306B6065E0534BD3F8C0306B60B5
:1061000060E0514BD3F8C4306B605BE04E4B1B6ECC
:106110006B6057E04C4BD3F8A0306B6052E04A4BB9
:10612000D3F8A4306B604DE0474BB3F958306B6047
:1061300048E0454BB3F95C306B6043E0424BB3F948
:106140005A306B603EE0404BB3F95E306B6039E033
:106150003D4B93F86730003B18BF01236B6031E083
:10616000394BD3F8C8306B602CE0384B1B686B6040
:1061700028E0354B93F866306B6023E0324BD3F860
:1061800094306B601EE0304B93F86830003B18BFD2
:1061900001236B6016E02C4B93F855306B6011E0D7
:1061A000294B93F85430003B18BF01236B6009E082
:1061B000254BB3F864306B6004E003232B7001E0DF
:1061C00004232B70224B1B78002B00F0FC85214B05
:1061D00021495A68214B0A602AB91A6842F008021C
:1061E0001A6000F0F0BD1A6822F008021A6000F090
:1061F000EABDFEF779FD00F0E6BDFEF7AFFF00F067
:10620000E2BDFFF7B1FA00F0DEBD154B9A7822B17E
:10621000022A104D40F0B080A8E05B78512B76D078
:106220002FD8452B5FD01DD8422B51D005D8402BFD
:1062300045D0412B40F0968048E0432B4DD0442B75
:1062400040F090804CE000BF4C000020680200202D
:106250003E0900204409002030090020D808002011
:10626000D0080020492B46D004D8462B3ED0472BDF
:1062700078D13DE04D2B44D0502B45D04C2B71D1E3
:106280003CE0812B55D00CD8552B49D004D8522B4B
:1062900040D0532B66D140E05A2B44D0802B61D1A3
:1062A00044E0842B52D004D8822B49D0832B59D17F
:1062B00049E0FE2B4DD04FD8F02B53D149E040F2AE
:1062C000FF7009F0F9F88A4B586057E0894B41E0BC
:1062D000884B5A78864B5A6050E0864B1A79F9E71A
:1062E000844BDA69F6E7834B5A79F3E7814B2BE06D
:1062F000804B9A68EEE77F4BDA7D2FE07D4B9A78F2
:10630000E8E77C4B5A7DE5E77A4B9A7DE2E7794BEB
:106310001A7DDFE7774B1A6ADCE7764B1A69D9E713
:10632000744B1A7ED6E7734B5A6AD3E7724B5A7A8C
:10633000D0E7714B5A7A042A14BF00220122C9E720
:106340006D4B5A68C6E76C4BDA68C3E76B4B1A684B
:10635000C0E76B4B1A78BDE76A4B1A78003A18BF52
:106360000122B7E7624B03221A7007E05A78664BA6
:1063700053F822306B6001E004232B70634B1B78D1
:10638000002B00F020855A4B61495A68614B0A6026
:106390002AB91A6842F008021A6000F014BD1A689F
:1063A00022F008021A6000F00EBDA378022B13D170
:1063B000594B5B78372B0AD89B00534903F5E260B1
:1063C000C9180A30042208F0F9FF00F0FCBC484B61
:1063D00003221A7000F0F7BC454B04221A7000F03B
:1063E000F2BC4D4B9A78022A28D159780F2913D83C
:1063F0004A4B1B68012B0AD18900434B01F5E2602F
:106400000A305918023208F0B5FF00F0DCBC384BF6
:1064100008221A7000F0D7BC37290AD889003A4BF5
:1064200001F5E2600A305918042208F0A3FF00F0D9
:10643000CABC2F4B03221A7000F0C5BC2C4B04229F
:106440001A7000F0C0BCA378012B02D0022B1AD125
:106450000FE0607848B922B9104608F063FF00F0F9
:10646000B2BC08F057FF00F0AEBC03232B7000F065
:10647000AABC60781AB908F071FF00F0A4BC08F05B
:1064800069FF00F0A0BC04232B7000F09CBCA37833
:10649000012B0BD01BB1022B154D16D10FE01E4B5B
:1064A000587808F053FF124B586010E01A4B104D0B
:1064B000587810B907F0FAFC05E0032306E0164B04
:1064C000587808F03FFF686001E004232B700F4B01
:1064D0001B78002B00F07784054B0D495A680D4B53
:1064E0000A60EAB91A6842F008021A6000F06BBC50
:1064F0004409002008000020680200204009002014
:10650000680900203D090020D00400203E09002039
:1065100030090020D8080020D0080020000000200A
:106520001A6822F008021A6000F04DBC894A8A4BB2
:106530005278092A3BD8DFE802F0050A0F141A2224
:10654000282E343783491A6849688A182EE0814A10
:10655000196852688A1A29E07E4A196852684A43C3
:1065600024E07C4A1968526891FBF2F21EE0794AF5
:106570001968526891FBF2F002FB101216E075499F
:106580001A68496801EA020210E072491A6849680B
:1065900041EA02020AE06F491A68496881EA020288
:1065A00004E01A68D24301E06A4A52681A606A4AF3
:1065B0006A4B12682AB91A6842F008021A6000F0A1
:1065C00002BC1A6822F008021A60FCE3624B1B68E6
:1065D000934206DD614B1A6842F0040222F0030286
:1065E0000CE05E4B05D11A6822F0060242F001026F
:1065F00004E01A6822F0070242F002021A60564ACA
:10660000564B126822B91A6842F008021A60DAE39F
:106610001A6822F008021A60D5E363780C2B00F2A6
:10662000D283DFE803F007121D28333E49545F6A26
:1066300075808B00494B1B6813F0080F00F0C38373
:10664000444B5A68464B5A60BDE3444B1B6813F0F9
:10665000080F40F0B8833F4B5A68414B5A60B2E391
:106660003E4B1B6813F0010F00F0AD83394B5A68A5
:106670003B4B5A60A7E3394B1B6813F0010F40F006
:10668000A283344B5A68364B5A609CE3334B1B68E9
:1066900013F0040F00F097832E4B5A68304B5A606A
:1066A00091E32E4B1B6813F0050F00F08C83294BF0
:1066B0005A682B4B5A6086E3284B1B6813F0020F75
:1066C00000F08183234B5A68254B5A607BE3234BB0
:1066D0001B6813F0030F00F076831E4B5A68204BA3
:1066E0005A6070E31D4B1B6813F0100F00F06B83B2
:1066F000184B5A681A4B5A6065E3184B1B6813F025
:10670000200F00F06083134B5A68154B5A605AE310
:10671000124B1B6813F0400F00F055830D4B5A6865
:106720000F4B5A604FE30D4B1B6813F0800F00F0C6
:106730004A83084B5A680A4B5A6044E3074B1B686C
:1067400013F4807F00F03F83024B5A68044B5A6079
:1067500039E300BFD008002030090020D80800200D
:1067600068020020814B5A68814B5A602BE3804BB2
:106770001969072900F227835C68481C03EB810133
:106780004C615A6018611EE3794B1A69002A00F0C7
:106790001A83013A03EB820149691A61596012E3D5
:1067A000734B1A7A7AB9714A5268B2F1FF3F04BF4B
:1067B000704A12680A214A435A6307F02FFD6C4B56
:1067C00001221A729863694B5C781CB1012C40F06D
:1067D000FA8210E007F022FD654B996B5A6B411A63
:1067E0000029B8BF4942914201D91C72EBE25A68B4
:1067F000013A5A60E7E200F049FF10F480455C4C32
:1068000007D05D4B00211A68217222F010021A6035
:10681000D9E2636B83B107F001FDA26B636B821A4F
:10682000002AB8BF52429A4206D9534B25721A68C1
:1068300042F010021A60C6E24D4B5A68013A5A60A3
:10684000C1E24B4B00225A72BDE2484B9A785AB9CA
:106850005A78142A04D85968484B43F82210B2E2F7
:10686000474B03221A70AEE2454B04221A70AAE28B
:10687000A37863B93D4B424D5B78142B04D83F4A53
:1068800052F823306B6005E003232B7002E03C4B91
:1068900004221A703B4B1B78002B00F09482384B7B
:1068A00034495A68344B0A6022B91A6842F0080227
:1068B0001A6088E21A6822F008021A6083E22B4B01
:1068C0009A7862B95C78142C05D800F087FD2B4BC0
:1068D00043F8240077E22A4B03221A7073E2284B14
:1068E00004221A706FE26278224B0A2A53D8DFE83A
:1068F00002F0060B11161C242A30363A4D002249AC
:106900001A6809688A1803E01F4A196812688A1A07
:106910001A6040E01C4A196812684A43F8E71A4AAC
:106920001968126891FBF2F2F2E7174A19681268C7
:1069300091FBF2F002FB1012EAE713491A680968AA
:1069400001EA0202E4E710491A68096841EA020212
:10695000DEE70D491A68096881EA0202D8E70A4BA6
:106960001A68D243D4E71A68074BD1E7D008002051
:106970006802002030090020D8080020DC08002030
:10698000440900203E0900204C090020894A18686B
:10699000116810601960884A884B126822B91A6819
:1069A00042F008021A600EE21A6822F008021A6029
:1069B00009E2814B1B686360FDF742FD03E27E4BF9
:1069C0001A687F4B5A60FEF7CFFEFCE16378052B17
:1069D00000F2F981DFE803F003090F151B21774B63
:1069E0001A6802F00F021A60EDE1744B1A6822F087
:1069F00010021A60E7E1714B1A6822F020021A6057
:106A0000E1E16E4B1A6822F040021A60DBE16B4B49
:106A10001A6822F080021A60D5E1684B1A6822F4E5
:106A200080721A60CFE1A3786BB9654B5B78142B49
:106A300005D8614A1168634A42F82310C3E1624BEA
:106A400003221A70BFE1604B04221A70BBE108F008
:106A5000C7FEB8E108F0C6FEB5E108F0C5FEB2E138
:106A600008F0C4FEAFE108F0C3FEACE108F0C2FEDE
:106A7000A9E108F0C1FEA6E108F0C0FEA3E1534B76
:106A800000225A729FE163780121504A8B42517271
:106A900040F099814A4B5A684C4B5A6093E14B4BFA
:106AA00002225A728FE1454900230B604249474A4E
:106AB0000B60404913720B6053725360136182E1A3
:106AC0001B7D13F0020F06D13D4A404B5268DA633A
:106AD00004225A7277E13C4B08221A7073E13B4B57
:106AE00000225A726FE1364A9B785068384C394A16
:106AF0000125B0F5006F1570237027DC364B1E7D25
:106B00002E4023D101A908F025FE9DF804809DF8B0
:106B100005709DF806C09DF80B009DF80A109DF8C1
:106B200009209DF80830267284F80180A77084F847
:106B300003C020716171A271E371254BE95C1A7A7F
:106B400001358A18082D1A72F7D13CE10123204A39
:106B5000002199540133082BF9D11378137232E1D3
:106B6000627892B91C4B01219A781C4B1868194B1A
:106B70001970174B1A7000230133C21812F8011C48
:106B8000134A082B9954F7D11DE1012A40F01B81CB
:106B90000D4B2F2119710221D971593199715A71F7
:106BA00011E16378032B00F20E81DFE803F0192670
:106BB000333800BF4C09002030090020D8080020DD
:106BC000D0080020DC0800204409002068020020D2
:106BD00034090020CC0400200800002060020020BE
:106BE0007A4A7B4BD16B92F809C0107A0A0A197164
:106BF00083F807C098715A71E5E0744A744B516884
:106C000092F809C0107A0A0A197183F807C09871BE
:106C10005A71D8E06F4B1A686D4B5A60D3E06E4BD7
:106C20001A686B4B5A60CEE06C4B1C68012C17D174
:106C30006B4B6C491A6802EA0101002940F0C380DD
:106C40005A6840F2D2439A4240F0BD8040F2FF7051
:106C500008F04AFC08F000FD204608F06BFBB2E0AB
:106C60005B4B08221A70AEE0667816B1012E1DD17A
:106C70000EE0042240F2FB7003A908F07BFB62687F
:106C8000039B9A4202D101236B609CE06E609AE004
:106C9000A3782A2B06D140F2FB705349042208F056
:106CA0008DFB90E04A4B03221A708CE003232B707B
:106CB00089E04B4B5B78032B40D8DFE803F00802F8
:106CC000313B424B196C464B5C68002324E03F4B40
:106CD0001A6C092A07D84248511C406803EB82020B
:106CE000506419646FE03A4B09221A706BE052F855
:106CF0002350581CA5420ED102EB8002013904E05A
:106D000052F8040C013342F8080C04328B42F7D3DA
:106D10002E4B196457E003468B42344AE7D352E0C6
:106D20002A4A00231364314A0021D1500433282B0E
:106D3000F9D148E0264B0A225A6044E0244B032252
:106D40001A7040E02268274B02EA0303284A934264
:106D500039D1234B5A68274B9A4234D1264B4FF4F2
:106D600000525A6103F098F807F058FA044607F009
:106D700055FA001B0028B8BF4042B0F57A7FF6DB19
:106D800008F0C6FA03F01AFE002004F047FB0021C9
:106D90001A4803F0F1FB194803F04EFB184803F0C2
:106DA00021FB002008F0C6FA0DE00D4B5A6840F2B6
:106DB000D2439A4207D1054B012283F86C2002E0AE
:106DC000034B02221A70BDE8FF8100BF6802002059
:106DD00044090020300900204C0900200000002058
:106DE000D008002000FFFF00D4080020AC020020E3
:106DF00000819200D6C5B4A30010014008000240F3
:106E00000024014073B5204B024640781F4D187096
:106E1000907800265870D078EC46987010790C461F
:106E2000D8715079987192F806E095E8030083F8DC
:106E300005E0D2798CE803001A71154B1E70FEF73D
:106E40009DFD144B1B7873B9637023702B78A3706E
:106E50006B78E370EB792371AB7963716B79A37114
:106E60002B79E37108E0012B06D10B4B9B195B7862
:106E7000A3550136082EF8D1044B6A4692E8030068
:106E800083E803007CBD00BFD00800204409002037
:106E90003E090020CC0400203409002073B50C4EBC
:106EA0000C4C73600C4B4FF0000C6D4683F800C027
:106EB00030707170B27094E8030085E80300FEF74B
:106EC0005DFD95E80300636884E8030018467CBD17
:106ED000D0080020440900203E09002070B5994BDD
:106EE00086B01B786BB1984B1B78062B09D00A2B08
:106EF00007D00F2B05D01F2B03D0944B002283F813
:106F00006D20924B93F86D30032B21D1904B1B7861
:106F100093B9904D904CA8786E7822786378861952
:106F2000B618E279F618A379B6186279F6182379BB
:106F3000B618F618F6B21AE0012B40F09280002441
:106F4000864BE05C013406F067FE092CF8D188E03E
:106F5000042B27D17F4D804CAB786E7818469E1954
:106F600001360023012222706360F6B2637006F0DE
:106F700053FE687806F050FE207806F04DFE6078EB
:106F800006F04AFEE07906F047FEA07906F044FEDE
:106F9000607906F041FE207906F03EFE304606F0AC
:106FA0003BFE5EE0072B35D1694B1B782BBB694A52
:106FB000694B5478957893F800E093F801C066190E
:106FC000D8797644997966445A7986191B798E194D
:106FD00096199E198DF808608DF800508DF80140C3
:106FE0008DF802E08DF803C08DF804008DF80510CF
:106FF0008DF806208DF8073009E0012B07D1013B01
:10700000564A995C0DF803100133092BF8D16846F4
:10701000092124E0082B24D14E4A4F4B92F801C09D
:1070200092F802E001240EEB0C05002201356846BF
:1070300009215A608DF802408DF8032016468DF81C
:1070400004208DF805208DF806208DF807208DF896
:1070500008505A701C708DF800E08DF801C002F0E5
:1070600009FE3A4B3A4893F86C100022027083F8FC
:107070006D2011B1012008F05DF90DF1170006F047
:10708000A5FD044600286FD006F0BCFD18B12F4BBB
:10709000002283F86E202D4A9DF8170092F86E109A
:1070A0004B1CDBB28918092B81F8700082F86E3016
:1070B00040F0B980274B92F870005978002388423D
:1070C00082F86E3040F0AF801A46204C04F1700117
:1070D000C95C01335218082BD2B2F6D194F878303B
:1070E00093422CD1184B94F8751094F8762094F8AC
:1070F000775094F8716094F872E094F873C094F843
:1071000074001D7199715A711E7083F801E083F843
:1071100002C0D87107F082F8114D637A2860591EB9
:1071200010480022C9B202700320012984F86D00C2
:1071300084F86E205AD9052B58D0013257E0042329
:1071400058E000BF3D090020D00800206802002060
:10715000CC0400200800002044090020340900204D
:107160006C0900207009002003A802F06DFD0028C2
:1071700043D05D4B9DF80C205B789A4253D1234657
:10718000224603A9C95C01335218082BD2B2F8D1A8
:107190009DF81410554C91422CD1554B9DF811106F
:1071A0009DF812209DF80D609DF80EE09DF80FC02F
:1071B0009DF810009DF8135099715A711E701D7141
:1071C00083F801E083F802C0D87107F027F8494935
:1071D000637A08605A1E48490020D2B2087007211D
:1071E000012A84F86D1001D9052B19D10022434BD7
:1071F0001A7018E084F86D3015E03C4C637A013B5E
:10720000DBB2012B0FD86368B3F5006F0AD81846BC
:1072100001336360364908F09DFA092384F86D3024
:107220000122E4E76072314C637A042B04D1304EC2
:10723000327812F0800F2FD02C4B93F86D303BB189
:10724000042B05D0082B03D0062B01D0FEF796FBAC
:10725000264B93F86D20092A04D1597A022901D1CD
:1072600003315972214B196C00293AD0092A38D1BF
:107270005A7A012A35D15868002307E054F8234090
:107280000133A04202D1052353722AE0174A8B42F0
:1072900002F14404F2D324E094F86D300BB3042BD4
:1072A0001FD0082B1DD0062B1BD0E06B144D73682C
:1072B000B0F5006F6A706B600FD8314608F04CF97A
:1072C0003146E06B08F070F920B1E36B0133E36302
:1072D000652300E007232B7003E007232B700023B6
:1072E000637206B070BD00BF080000206802002075
:1072F000D00800206C090020700900203E09002001
:1073000044090020704700BF234A244B30B5D3F80E
:10731000943014684FEA530C041B6445106001DD7F
:10732000E41A04E0CCF1000C6445B8BFE4181C4D2D
:107330001A4A2D7815B9D2F8C82002E0D2F8C82030
:10734000524208180419A41848BFE418B4FBF3F219
:1073500003FB1244114AA40292F85510104A49083E
:107360001278B3FBF1F3B4FBF3F312B903F58073B6
:1073700001E0A3F58073002B0A48B8BF03F58063D2
:1073800003EA0000002805DA01386FEA80506FEA4E
:107390009050013030BD00BFE40200204C000020BE
:1073A000E4090020FF030080014B1868704700BF0C
:1073B000D4090020014B5868704700BFE402002048
:1073C000014B1868704700BFF009002008B5024B58
:1073D000186808F051FF08BD100A0020014B18681A
:1073E000704700BFD0090020014B1868704700BFEC
:1073F000200A0020014B1868704700BFE8090020F0
:10740000014B1868704700BFF8090020064A074B77
:10741000127822B918680028B8BF404203E0186803
:107420000028C8BF40427047E4090020D809002066
:10743000024B9A6840EA02029A607047E402002018
:1074400008B50A4B93F851300BB1022B0CD1084B05
:107450009A6812F0070F04D09B6803F00703072B0C
:1074600002D12020FFF7E4FF08BD00BF4C00002040
:1074700000080140024B9A6822EA00029A607047B5
:10748000E4020020B0F5007F10B5044610D003DC04
:10749000B0F5807F34D121E0B0F5806F03D0B0F536
:1074A000006F2DD10DE0FFF7C3FF4FF4007003E034
:1074B000FFF7BEFF4FF48060FFF7DCFF4FF4006082
:1074C00007E0FFF7B5FF4FF48060FFF7D3FF4FF4FD
:1074D0000070FFF7CFFF4FF480700BE0FFF7A8FFBD
:1074E0004FF40070FFF7C6FF4FF40060FFF7C2FFD4
:1074F0004FF48060FFF7BEFF4FF48040FFF7BAFF04
:10750000014B1C6010BD00BFF4090020034B9B68B9
:1075100018420CBF00200120704700BFE402002089
:1075200010B504464FF48030FFF7F0FF012808D073
:10753000044B4FF480701C60FFF7A4FF024B002245
:107540001A6010BDF0090020100A002010B5044692
:107550004FF48030FFF7DAFF012808D0044B4FF4D6
:1075600000601C60FFF78EFF024B00221A6010BD06
:10757000D4090020100A002038B505464FF48030A9
:10758000FFF7C4FF01281FD0104B4FF480601C6828
:107590000F4B5D60FFF776FF4FF48040FFF76AFF07
:1075A000B4F5007F04D10B4B1A680B4B1A600BE04B
:1075B000B4F5807F02D0B4F5006F05D1074B186891
:1075C00008F040FC044B186038BD00BFF4090020EF
:1075D000E4020020100A002078090020E8090020B9
:1075E00008B5034B1B68C018FFF7C6FF08BD00BFF6
:1075F000D009002008B54FF40040FFF787FF0128AD
:1076000014BF0020012008BD034B93F89C2040EAE2
:10761000020283F89C2070474C000020034B93F833
:107620009C2022EA000283F89C2070474C00002036
:10763000034B93F89C3018420CBF00200120704788
:107640004C000020034B93F8CD2040EA020283F85F
:10765000CD2070474C000020034B93F8CD2022EA48
:10766000000283F8CD2070474C000020034B93F8B4
:10767000CD3018420CBF0020012070474C00002084
:1076800008B52F20FFF7F6FE08BD00BF034B10B56D
:107690009C68FFF7F5FF204610BD00BFE402002004
:1076A000034B10B59C68FFF7EBFF04F02F0010BDF3
:1076B000E402002038B505464FF48030FFF726FF7E
:1076C000012838D01C4B4FF400701C681B4B1D6008
:1076D000FFF7D8FEB4F5807F02D0B4F5006F05D176
:1076E000174B186808F0AEFB164B1860164CA368D1
:1076F00013F4005F05D1FFF7D3FF10B94FF4005327
:107700002361124B93F85630012B08D0022B09D17C
:107710000D4B4FF400525A61A2F5005200E00022D6
:10772000064B1A60094B93F85120012A03D1084BEC
:10773000197B01B91A7338BDF4090020200A002012
:10774000E8090020100A0020001001404C00002031
:10775000E4020020014B1868704700BFEC090020CC
:10776000014B1868704700BF240A0020014B58687D
:10777000704700BF240A0020014B1868704700BF03
:1077800080090020014B5868704700BF8009002025
:10779000014B1868704700BFA8090020014B5868CA
:1077A000704700BFA809002008B54FF48030FFF7EC
:1077B000ADFE01280DD04FF40030FFF7A7FE0128E1
:1077C00007D04FF40040FFF755FE4FF40040FFF79D
:1077D0002FFE08BD08B54FF40030FFF797FE0128D3
:1077E00006D00020FFF79CFE024B01225A739A73C9
:1077F00008BD00BFE4020020034B587B052814BFDE
:1078000000200120704700BFE40200200138052855
:1078100022D8DFE800F00717030F0B13012916D059
:10782000022912E0052912D003290EE004290ED006
:1078300001290AE006290AD0052906E0022906D016
:10784000042902E0032902D0062905D101E0012024
:1078500003E04FF0FF3000E000207047012808B53A
:1078600007D010F1050F04D0B0F1FF3F01D005287B
:1078700003D12020FFF7FEFD03E010B12020FFF729
:10788000D7FD08BD124B134A93F8513010781249B6
:10789000032B087005D8022B05D223B1012B16D17A
:1078A00010E0802B13D10D4B9968094B01F00701B3
:1078B00093F85420074B19704AB11A7882F00702E6
:1078C0001A7004E0064B9B68C3F382131370704771
:1078D0004C000020040A00201C0A0020000801407F
:1078E000000C0140704700BF08B50120FFF7BEFE45
:1078F00048B1054B002204201A60FFF7B7FE10B113
:107900000120FFF7A9FE08BDD009002008B5044BEF
:1079100093F8D8301BB94FF40030FFF7ABFD08BD2A
:107920004C00002008B54FF48030FFF7A3FD08BDE0
:1079300008B5042002F0D6FE10B1042002F0E0FEEB
:1079400008BD00BF10B50120FFF772FEF0B1104A6C
:1079500000230124D47313610E4A0F4819461360A3
:1079600004F068F90420FFF763FE10B12046FFF72A
:1079700055FE0A4B93F851300BB1052B06D1074B3E
:10798000D3F8983013B1024B05225A7310BD00BFD3
:10799000E4020020EC090020000400404C0000201C
:1079A00008B54FF4807002F09DFE38B14FF480703E
:1079B00002F0A6FEFFF7C6FFFFF796FF08BD00BF67
:1079C00070B5274B9C68274B04F0070493F854309C
:1079D0000BB184F00704244B21461D7D234E28461D
:1079E000FFF714FF1F4B3268B3F85830821819B2F2
:1079F0000029326003DD052D2FD1042C04E0002B7B
:107A00002BD0042D29D1052C27D1164D062295F80F
:107A100055305343154A1268002AB8BF52429A4261
:107A20001BDB134A002313600F4A194613611148E8
:107A300004F000F9B5F95830002B02DDB5F95C30DF
:107A400005E0D5F89430B5F95A20013B9B1A054A58
:107A5000C2F89830044B01225A75034B1C7570BD57
:107A6000000801404C000020E40200200C0A002025
:107A7000EC0900200004004037B5154B154993F878
:107A800051200120022A087021D093F85420124B73
:107A90009968124B01F0070119701AB11A7882F037
:107AA00007021A700E4B0D4C1A680E4B08481B78D3
:107AB0002578084C90F85610247890F869000095C5
:107AC000019406F033FE0848202103F073FE3EBD0A
:107AD0004C000020CC09002000080140040A0020CE
:107AE000D8090020E4090020002C014037B52C4CB7
:107AF000237B012B11D12B4B2B4D9A68A37DC2F315
:107B00008212A85CC01AFFF7A9FE2020FFF7FEFC36
:107B100018B9264B1B78EB5CA375214B2449DA7D01
:107B2000244B022A04D100220A70204A127801E074
:107B300001220A701A70204B1B7813B1012B19D146
:107B400007E01E4B184993F85400184A194B38B1F6
:107B50000AE01A4B144993F85400144A154B18B113
:107B60001B7859180B7C02E01B7859180B7A03F02C
:107B700007031370124B0D4C1A680F4B0F481B78FC
:107B800025780B4C90F85610247890F869000095F1
:107B9000019406F0CBFD0B48202103F00BFE3EBD07
:107BA000E4020020000C014054010020040A0020DF
:107BB000CC0900201C0A0020E40900204C00002011
:107BC000D8090020002C014037B50D4890F85130FD
:107BD000012B13D80B4B0C4C1A680C4B90F8561019
:107BE0001B7825780A4C90F8690024780095019458
:107BF00006F09CFD0748202103F0DCFD3EBD00BFE0
:107C00004C000020D8090020040A0020E4090020CC
:107C1000CC090020002C0140F7B51F4C1F4B2278E7
:107C20001F4D1A701B781F4E5B191B7C1E4803F0FA
:107C3000070323701D4B90F856101A681C4B90F8E0
:107C400069001B78277836780097019606F06EFD5C
:107C50002021184803F0AEFDEB7C227803F00703E7
:107C60009A4217D1144B00241C76204607F09AF94B
:107C70000146204607F09EF9012007F093F90146DE
:107C8000012007F097F9022007F08CF90146022045
:107C900007F090F9FEBD00BF040A00201C0A002076
:107CA00054010020CC0900204C000020D8090020FD
:107CB000E4090020002C0140E4020020F8B5354B17
:107CC00093F8514014B1012C61D10FE0324B334A8B
:107CD00019781878324B89188218127E087E997D9F
:107CE0009A75401AFFF7BAFD012451E02A4B1A7821
:107CF0002C4A10781978FFF789FD071E1BDD284DE7
:107D00000021EB69284A8B42116030DA03F094FBC2
:107D1000064606F083FA2B6A6C6AF31A041B48F6CF
:107D2000A04202FB0434214B68629C4294BF0024B1
:107D300001242E621CE01AD0194D1B4AEB69146015
:107D4000002B14DD03F078FB064606F067FAAB6AF9
:107D5000EC6AF31A041B48F6A04202FB0434134BEE
:107D6000E8629C4294BF00240124AE6200E001243A
:107D70000B4BDF6144B1084A0849127820208A5C25
:107D80009A75FFF777FB03E02020FFF751FB0024F3
:107D90002046F8BD4C000020040A002054010020B9
:107DA000E40200201C0A0020480A0020BFCF6A001D
:107DB000022138B51F4803F0A1FF01281AD1022182
:107DC0001C4803F0A1FFFFF75DFD1B4B93F85130FA
:107DD000032B0FD0FFF772FF012809D1174C184B66
:107DE00025681878174B1978FFF710FD40192060A7
:107DF000FFF7EAFE01210F4803F080FF012801464A
:107E000016D10C4803F080FF0F4B1B7E13B1FFF718
:107E100003FF0DE0084B93F85130042B01D1FFF71D
:107E200065FE054B93F85130022B01D8FFF724FE75
:107E300038BD00BF000800404C000020D0090020E1
:107E40001C0A0020040A0020E4020020022138B5A8
:107E50004FF0804003F052FF012826D102214FF05D
:107E6000804003F051FFFFF70DFD204B9B7B012B62
:107E700006D11F4B93F86630012B01D1FFF7A0FD0F
:107E80001B4B93F85130032B0FD0FFF717FF01283E
:107E900009D1184C184B25681878184B1978FFF73A
:107EA000B5FC40192060FFF78FFE01214FF08040A4
:107EB00003F024FF0128014617D14FF0804003F062
:107EC00023FF0A4B1B7E13B1FFF7A6FE0DE0084B04
:107ED00093F85130042B01D1FFF708FE044B93F8BF
:107EE0005130022B01D8FFF7C7FD38BDE402002056
:107EF0004C000020D00900201C0A0020040A0020A9
:107F000010B506F08BF9284B1B6BC31A002BB8BFBA
:107F10005B42FA2B47DD042007F044F804460820B2
:107F2000FFF7F4FAD0B940F6B3239C420BD90830DE
:107F3000FFF77EFA1D4B04221A614FF4005203F53D
:107F400080635A612BE0B4F5156F0BD80820FFF75A
:107F500091FA164B0422164C5A6111E040F60B239D
:107F60009C421CD80820FFF785FA104B9A6812F043
:107F7000040F02D004225A6101E004221A610C4C61
:107F8000A36813F4005F0AD1FFF78AFB38B900F544
:107F90000050FFF7BBFA10B94FF40053236106F00D
:107FA0003DF9014B186310BDE4020020000C0140B4
:107FB0000010014008B506F031F91D4B5B6BC31A88
:107FC000002BB8BF5B42B3F57A7F2FDD194B93F8D6
:107FD0006730012B0DD1032006F0E4FF40F6E1539A
:107FE000984206D9144B4FF4005204205A61FFF70F
:107FF0001FFA032006F0D6FF40F21633984203D949
:108000000B4B93F8383013B90220FFF711FA002018
:1080100006F0C8FF18B9064B93F8383013B10220A8
:10802000FFF728FA06F0FAF8014B586308BD00BFC5
:10803000E40200204C0000200010014010B506F0C2
:10804000EDF81D4CE36BC31A002BB8BF5B42B3F5D0
:108050007A7F30DD194B9A6812F4806F24D19B68C7
:1080600013F4005F09D00120FFF7E2F994F84030E3
:108070000A2B02D8013384F84030114A00210F4BFB
:10808000116010480022996802600F4811F4005FE7
:1080900002600CD0084A92F840200A2A07D84FF410
:1080A00000621A615A6102E0002384F8403006F051
:1080B000B5F8014BD86310BDE40200200010014068
:1080C000100A0020080A0020200A002010B5344BB6
:1080D00093F83820002A61D1013283F8382006F065
:1080E0009DF8044601E0FFF7A9FF2E4B9B6813F4AF
:1080F000806F08D106F092F8001B0028B8BF4042FC
:10810000B0F57A7FEFDB06F089F8041B002CB8BFCE
:108110006442B4F57A7F03DB214B002283F83820D8
:10812000214B93F85130032B02D8022B19D205E0D2
:10813000052B16D002D3802B21D112E006F06EF869
:10814000174B586406F06AF8154B5A6C821A002ACD
:10815000B8BF5242C72AF5DD01221A76134B1A70B6
:108160000DE006F05BF80E4B586406F057F80C4B28
:108170005B6CC31A002BB8BF5B42C72BF5DD002038
:108180004FF4006106F016FF01204FF4006106F085
:1081900011FF02204FF4006106F00CFF10BD00BF7C
:1081A000E4020020001001404C000020040A0020DE
:1081B00008B50248202103F0B7FD08BD002C01409E
:1081C00070B54F4B064693F85120032A48D006D38A
:1081D000052A7FD067D3802A40F090807AE006F0AD
:1081E0001DF8484B05469B6C984201DBC21A01E022
:1081F000DB43C218444B4549012E1C6808BF414B64
:10820000097808BFDC643F4B39B9DB6C9C4201DB69
:10821000E31A09E0DB431B1906E0DB6CA34201DB38
:108220001B1B01E0E143CB1842F210714B43344871
:10823000364990F855000978400800290CBF012103
:108240004FF0FF3159434243314E91FBF2F1306818
:10825000402205F0DDFA2B4B3060DC649D644DE07C
:10826000284A2C4B556D1C6802EB8500116D2A4B7A
:10827000866D0135611805EA0303891B002B8465AF
:10828000116505DA013B6FEA03736FEA137301337B
:10829000224841431A48D0F8940053651C4B91FB87
:1082A000F0F119602AE093F85520164B1C49D3F8D9
:1082B0009830520891FBF3F1154B91FBF2F11960E4
:1082C00019680029B8BF49424A43B2F5897F15DCD5
:1082D000002212E00B490E4BD1F89C206AB1D1F874
:1082E000982012214A4306494FF4806091F85510B6
:1082F00092FBF0F2490892FBF1F21A6070BD00BFE8
:108300004C000020E4020020D0090020E4090020F5
:10831000E8090020140A00200F000080F824010062
:1083200080A8120110B504464FF48040FFF7A2F870
:10833000034B01201C60034B5C60FFF741FF10BD45
:10834000D0090020E402002038B5484B5B7B013B9C
:10835000062B00F28A80DFE803F004884588881540
:108360007E000020FFF7DCF8414B002283F86920F3
:1083700083F8512005F052FF3C4B06225A73C3F894
:10838000A00072E005F04AFF384C394DD4F8A02027
:10839000B5F95E30821A002AB8BF52429A4217DD00
:1083A000344A0023B5F9580063751360FFF782F96A
:1083B000314BB5F958101A68022391FBF3F39A4236
:1083C00001DB032363734FF40040FFF753F84CE0E5
:1083D0000020FFF7A5F8294B002201201A60FFF7C3
:1083E000EFFE42E0214C657D012D1BD10020FFF7FF
:1083F00061F9214B1B68002BB8BF5B42042B34DCB6
:108400002846FFF7DDFE1A4B00220521A273617397
:1084100003214FF4004083F8511083F86920FFF7DF
:1084200007F822E04FF40040FFF724F8144B1A68D5
:108430000F4BD3F890309A4217DB05F0EFFED4F8DB
:10844000A030C31A002BB8BF5B42B3F5FA7F0CDD36
:108450000723637309E04FF40040FFF70BF8034A6A
:10846000002318469373FFF75BF838BDE402002041
:108470004C0000200C0A0020E8090020D009002050
:10848000F809002010B50446214803F02FFC214BC9
:1084900093F86830012B04D1C0F57E4000F5FF70E1
:1084A000013043F6FE711C4B88421B6807DC1B4AF7
:1084B0001269B2F5404F0FDBC2F580320AE0B0F529
:1084C000404F09DB154A12698A4205DCC2F17F423E
:1084D00002F57F02121802E0104A1269821A012C7A
:1084E00003D10F490C6814190C600A49D318D1F84C
:1084F00094100C4C8B42226001DB5B1A02E0002BD3
:10850000B8BF5B18054A1061034A136010BD00BF75
:10851000000400404C000020EC090020E402002090
:10852000D0090020140A00200121F8B5A84803F062
:10853000FBFBA84AA84BD2F8A41093F851300131A4
:10854000012BC2F8A41001D9042B32D105F082FE10
:10855000FF2837D006F09CFDE0B901219F4801F0CB
:1085600001FE05F077FE06F035FD9D4B9D4C186031
:108570001868994BB3F8641006F05EFD9A4B0146FB
:108580001B78012B08BF41422068802205F040F98A
:10859000206017E08F4BD3F8A8200132B2F57A7F24
:1085A000C3F8A8200ED30022C3F8A82006F076FD59
:1085B00008E006F06DFD08B106F070FD8748012166
:1085C00001F0D0FD834CA67B012E45D1824D95F85C
:1085D0006670002F40D13046FFF754FF834B394679
:1085E0001868FEF791FE637B0746032BC4F8AC00C6
:1085F00049D13046FFF71CF830B17D4B95F8550056
:108600001A68B2EB400F4CD3BB059B0D002B6CD10D
:10861000714B4FF00401B3F95820002A6D4A517391
:1086200074490EDB93F855C0D3F8942008684FEADC
:108630005C01B2FBF1F1091AB1FBF2F002FB10127E
:1086400004E0D3F894200968013A521AC3F898203C
:10865000604BC3F8B47048E05E4CA67B012E4DD150
:108660005D4D95F86630022B48D13046FFF70AFF82
:108670005E4B00211868FEF747FE637B0746032B1D
:10868000C4F8AC0002D0042B2FD12AE03046FEF70C
:10869000CFFFE8B1564B95F855001A68B2EB400F82
:1086A00016D25449D4F8B0600F68D5F89450C6EB90
:1086B000070CBCF1000FB5FBF0F0B8BFCCF1000C1B
:1086C000844512D309680132C4F8B0101A600CE076
:1086D000BB059B0D4BB93F4B0422C3F8B4705A73D2
:1086E00003E0D4F8B430C4F8AC303A4B3A4AB3F8AB
:1086F000B81092F85620D3F8AC0042E0364B93F80D
:108700005130052B00F2D380DFE813F0CE00D1000A
:108710003E002600D10006000120FFF7B3FE2D4BDE
:108720003149D3F89C200978C3F8BC2019B1D3F89B
:10873000C0108A1A02E0D3F8C0105218C3F8C02043
:10874000244B254AB3F9C24092F85620B3F8B8102A
:108750002046C3F8AC4014E00120FFF793FE1E4D05
:10876000244BD5F898101868FEF7CEFD194CC4F8C4
:10877000AC0007F09FF8B4F8B81095F85620D4F87C
:10878000AC0006F013F892E01748124B90F800C0C6
:10879000D3F8C020D3F8BC10BCF1000FD3F8C4400C
:1087A0001144007814BF6FF0FF024FF4807202EBA7
:1087B00021420134C3F8C010C3F8C440C3F8AC2050
:1087C0000549C8B1B1F95A105218524217E000BF1A
:1087D000002C0140E40200204C0000200024014055
:1087E000DC090020F8090020E40900207C090020B1
:1087F000000A0020EC090020B1F95C105218C3F8FF
:10880000AC202B4C2B4B94F85620B3F8B810D3F86F
:10881000AC0005F0CBFF284B284A19781170284A84
:10882000916894F8542001F0070119701AB11A7870
:1088300082F007021A70204B224A1B78127812B17C
:10884000012A0FD106E0013BDBB2052B0AD81E4AF4
:10885000D25C08E0013BDBB2052B03D81A4A9B1817
:108860001A7A00E00622134B93F8C81091421ED0EA
:10887000D3F8C400154C03EB8101B4FBF0F0C1F850
:10888000CC0003EB8201D1F8CC104FEA826C0620B9
:108890009CFBF0F00024C3F8C440C3F8C000C3F848
:1088A000BC1083F8C82002E00020FFF7EBFDF8BD04
:1088B0004C000020E4020020040A00201C0A0020D2
:1088C00000080140E4090020C4020108AAAAAA0085
:1088D000264B4FF4007210B5254C1A61012006F0AA
:1088E000E3FB94F8510006F039FA94F8510006F0D1
:1088F00075F994F8510006F0BDF84FF40040FEF70A
:1089000097FD1C4B93F82020012A06D1013A94F8D8
:10891000510083F8202006F011F8154C94F851000E
:1089200005F0A4FF94F8CC00104B4FF400425A61BC
:1089300000B101200D4C06F0BDFB4FF480532361C4
:1089400003F540532361A36813F4005F0AD1FEF7D7
:10895000A7FE38B900F50050FEF7D8FD10B94FF466
:1089600000532361FFF7B2FB10BD00BF00100140B0
:108970004C0000205401002010B5264B1A7B012A20
:108980001AD193F8E4100A46B1B993F8E510012919
:1089900012D1214991F8510001280DD01F4C1A73B2
:1089A00022601F4881F8692005F0A2F81D4805F0F3
:1089B0009FF81D4805F09CF8164A137B012B21D027
:1089C000154B92F8E51093F8513099421AD0527B2A
:1089D000052A03D0154A012182F82010042B09D161
:1089E0000C4B4FF6FF72C3F898204FF47A72C3F81D
:1089F000E82005E0052B03D1064B0022C3F89820A0
:108A0000FFF766FF044B93F85120024B83F8E520F3
:108A100010BD00BFE40200204C000020080A002026
:108A200080090020240A0020A80900205401002009
:108A30002DE9F04788B005F0F1FBA54C0546D4F8C8
:108A4000EC30C31A002BB8BF5B42B3F57A7F17DB5B
:108A5000D4F8F0301846C4F8F43006F001FFD4F82A
:108A6000FC10D4F804210023C4F8EC50C4F8F8102A
:108A7000C4F80021C4F80431C4F8F030C4F8FC3064
:108A8000944A934B1168944AD3F8F00092690029F4
:108A9000B8BF49420130002AB8BF52429142C3F8E0
:108AA000F00003DC1020FEF7C3FC02E01020FEF70C
:108AB000E1FC8A4B0021186807F0ACFBB0B1864B93
:108AC00093F85630012B06D14FF40050FEF7D2FC3C
:108AD0004FF4805007E0022B10D14FF48050FEF786
:108AE000C9FC4FF40050FEF7A3FC07E04FF48050A0
:108AF000FEF7C0FC4FF40050FEF7BCFC764B93F839
:108B0000CC0000B10120724D06F0D4FAFFF734FF1B
:108B1000FFF750FAFFF7F4F9FEF792FC2B7B002BDE
:108B200000F044816E4B1C6874B92046FEF7F8FCD7
:108B3000694B6FF07F0283F86920813283F85120FE
:108B4000FFF7C6FE85F8E440614C94F8E430072B4B
:108B500000F22C81DFE813F008001F002C00360023
:108B60002A0177002A0110015C4A00231360C4F82F
:108B700008310023E3755B4804F0BAFFD4F808011C
:108B800007F07AFBFEF7E2FC554B1B68002B00F068
:108B90000D81012212E0504B0025042283F8512060
:108BA00083F86950FFF794FEC4F80C51022347E0A4
:108BB000D4F80C31632B40F2F9800322444B83F844
:108BC000E420F3E0D4F80851414C284607F054FB68
:108BD000414B0028D3F89030B8BF4042984218DA91
:108BE0003F4B1B68002B08DB284606F0CDFF36A361
:108BF000D3E9002306F06AFE07E0284606F0C4FF2A
:108C000031A3D3E9002306F05FFE07F011F8C4F8A2
:108C100008012F4CD4F8080107F02EFBFEF796FC54
:108C2000D4F8080107F028FB2B4B0028D3F890302C
:108C3000B8BF40429842C0F2B9800223E3750333C3
:108C400084F8E430B2E0234B234C1B68D4F8DC10EA
:108C5000002BB8BF5B428B42C0F2A880224DD4F8F3
:108C600044E0D4F848C0E76CD4F8B860D4F8BC80CD
:108C7000D4F8C0A0D4F8C4902269236C2846CDF85B
:108C800000E0CDF804C002970396CDF81080CDF82F
:108C900014A0CDF8189004F031FF2B69A168AA69DF
:108CA00063B1B2F57A7FA8BF4FF47A724A434FF4AA
:108CB0007A71B2FBF1F2120492FBF3F3084A1268E4
:108CC000002A13DD032214E09A9999999999A93FF2
:108CD000E4020020E80900204C000020100A0020D7
:108CE000200A0020A80900208009002005D06FF08C
:108CF000020293FBF2F37A4A53607A48042102F0AD
:108D000081FF7848002102F005FE76484FF6FF719A
:108D100002F092FF7348012102F0FCFD714800212E
:108D200002F088FF704B71481A68714B714C1B78C8
:108D3000067871484FF0010C057884F851C06FF047
:108D40007F0C84F869C094F8561080200096019535
:108D500005F0ECFC2021694802F02CFD684B1868F6
:108D6000FEF7A8FC674B00221A6005F057FA664B25
:108D7000072283F8E42017E0624B1B68282B05DDEF
:108D8000624B00221A605E4B00221A6005F046FA20
:108D90005D4BD3F81021821A002AB8BF5242632AD1
:108DA00004DD584A00211160C3F81001564CA37B22
:108DB000002B76D04F4B93F86630012B25D002D391
:108DC000022B6ED124E0637B013B042B69D8DFE8E2
:108DD00003F0280368166200E37D022B02D14A4BA0
:108DE00003225A730120FEF70FFC0420FEF70CFC4F
:108DF0000120FEF727FC0420FEF724FC51E0D820D8
:108E00004349042206F0DAFA39E0FFF79DFA48E018
:108E1000637B013B042B44D8DFE803F003194331A3
:108E20003D00344B6FF07F02B3F9580083F85120B6
:108E3000FEF740FCE37D13B9334B0122DA75324A69
:108E400000230221D3735173324A136029E0E37D7A
:108E5000022B02D12C4B03225A730120FEF7D4FBC4
:108E60000420FEF7D1FB0120FEF7ECFB0420FEF707
:108E7000E9FBD8202649042206F07CFA11E01D4ABD
:108E800000230321184682F85110E375FEF712FC07
:108E90000523637305E000234FF40040A373FEF73E
:108EA000C7FA194AD2F81431002B3FD00023C2F878
:108EB0001431194A126812B10B4A126882BB0E4B68
:108EC00001221A70154B4FF480425A61002300BFF3
:108ED00001330A2BFBD1114B4FF480421A6125E07C
:108EE0008009002000080040D8090020040A002062
:108EF000E40900204C000020CC090020002C014097
:108F0000200A0020FC090020E4020020100A0020B2
:108F1000E4000020000A0020E809002000100140C1
:108F20009D4A4FF4804111619C4A13709C4C9D4DA9
:108F3000D4F818216B6B9A42C0F07982D4F80421DE
:108F4000002301321846C4F80421C4F81831FFF791
:108F500037F94FF40040FEF7D9FA012827D14FF432
:108F60008060FEF7D3FA012821D18F4F8F4E6268BF
:108F70003B68D6F800C08E492846CDF800C004F002
:108F800049FD62683B688B49D21A002A6B69B8BFF9
:108F900052429A4208600ADC3268EB68002AB8BF85
:108FA00052429A4203DC4FF48040FEF741FA4FF4FC
:108FB0000040FEF7ABFA012840F00C81794D95F89E
:108FC0005030012B40F006814FF48060FEF79EFA8E
:108FD000012840F08D8095F851302C6873B9764B9C
:108FE0001868014606F082FF744906F07FFF0646C6
:108FF00095F85500400806F025FF0DE0032B01D041
:1090000000231AE06C4B1868014606F06FFF064615
:10901000D5F8940006F012FF0146304606F066FFD0
:10902000EB6906467820584306F00CFF01463046AF
:1090300007F010F807F020F90346594A4FF4804032
:109040005168594A5C4D12689142554AB8BF644212
:109050005168554A12688A1A002AB8BF52429A4289
:10906000D8BF0024FEF752FA012804D1514B1868EA
:1090700006F0E8FE37E0204606F0E4FE2E680746DC
:109080003946304607F0D0F888B1464B44B95A6BA0
:109090000C214A43D869504306F0D0FE48491CE0F1
:1090A000586BDB69584306F0C9FE464915E039465E
:1090B000304607F0D7F8B8B13A4B44B95A6B0C2197
:1090C0004A43D869504306F0B9FE3F4905E0586B62
:1090D000DB69584306F0B2FE3C4906F0BBFF01468F
:1090E000304606F0FBFD2860334B1A68384B1A6097
:1090F0004FF40070FEF70AFA012871D1294DEE698C
:10910000002E67D095F85130802B63D0294B304C1E
:10911000186806F097FED4F80080074639464046A6
:1091200007F082F8B0B1686B2768704306F086FEDE
:10913000244906F08FFF0146384606F0CFFD206037
:10914000286806F07FFE266805462946304607F067
:109150006BF81CE02068394607F084F800283FD0FF
:10916000686B2768704306F069FE184906F072FFC5
:109170000146384606F0B2FD2B682060584206F0E2
:1091800061FE266805462946304607F06BF800B1B7
:1091900025680F4B1D6023E000100140CC09002022
:1091A000E40200204C000020D0090020E809002043
:1091B000240A0020200A0020780900200000C04076
:1091C00000401C4600007A4400401CC600007AC4DF
:1091D000100A00207E4B186806F034FE7D4B1860A4
:1091E0004FF40040FEF792F901280FD07A4B5A7BDA
:1091F000062A0BD05A7B032A08D0784A92F85120CD
:10920000012A3ED193F8E430072B3AD14FF4007095
:10921000FEF77CF9012805D04FF48060FEF776F95F
:1092200001282ED16D4C94F85130802B29D0042B7D
:1092300027D0684D6A4B28681E6807F01DF8334632
:1092400002466849204604F06FFB94F85130664AA4
:10925000012B106015D12868002107F003F818B120
:10926000624B1B68012B08D05A4B0021186806F08E
:10927000DBFF30B15D4B1B681BB95D4B1A680132D7
:109280001A604FF40070FEF741F9012821D1534ACA
:1092900092F85130802B1CD1564BB2F958101868F7
:1092A0000029ACBF01214FF0FF310918196019687E
:1092B000002904DAD2F8942019688A181A604D4BF4
:1092C000464A1968D2F89420B1FBF2F002FB101262
:1092D0001A604FF40060FEF719F9012805D03E4BE3
:1092E00093F8E430052B40F0A2803C4B93F85130CA
:1092F000042B40F09C80384BDA7D022A08D04FF6D0
:10930000FF72C3F898204FF47A72C3F8E8208EE019
:10931000DA7D022A40F08B802D4A1268002A08D19B
:109320004FF6FF72C3F898204FF47A72C3F8E82022
:1093300004E0314BCCBF002201221A70284A244B92
:1093400011681B6899421ADA244A234BD069556B7D
:10935000D3F8E84092F8551005FB0040274A490829
:1093600092FBF1F191FBF0F10A2251434FF6FF72AB
:109370009142C3F8E800C3F898101EDD1BE01268A4
:109380009A421ADD154A144BD469506BD3F8E85051
:1093900092F8551000FB1450184A490892FBF1F15D
:1093A00091FBF0F10A225143154AC3F8E8009142BB
:1093B000C3F8981001DAC3F89820094B1A68002AFC
:1093C00020DD094B1A68002AB8BF524222E000BFD4
:1093D000200A0020100A0020E40200204C00002097
:1093E000E809002080090020D4090020480A002054
:1093F000FC0900207C090020E409002000D2496B10
:109400000100FFFF1B68002B05DA7A4B1A68002A5F
:10941000C8BF52421A60784C206806F013FD2368DA
:10942000764A1060184606F00DFD754B1860754CB5
:10943000754BD4F8A4209B6B9A42C0F09081D4F86D
:10944000FC30002201334FF40040C4F8A420C4F8DB
:10945000FC30FEF75BF8012805D0637B072B1BD19E
:109460006A4B1B68C3B94FF48070FEF74FF80128B0
:1094700012D1664B66491C681A68002CB8BF64425A
:10948000002A0C6003DD634B00221A7004E01B68A5
:10949000002BBCBF5F4B18705B4B93F85130052B12
:1094A00006D003D8023B012B18D801E0802B15D140
:1094B00005F01EFE584B594C18601868524BB3F813
:1094C000641005F0B9FD534B01461B78012B08BF12
:1094D00041422068402204F09BF920604A4B93F8F7
:1094E0005120012A01D9042A07D1474B4B4A996BD5
:1094F00010684900D3F8D42004E04849D3F8D420B8
:109500000868996B04F0EAFD04F020FE3E4DD5F8A2
:10951000D030984227D904F081FE3A4CD4F81C315F
:10952000C31A002BB8BF5B42B3F57A7F1BDB04F094
:10953000CDFD4FF40030FDF77BFF95F8D8305BB9D7
:109540002946012201F8D82F4FF48C7005F036FF20
:1095500004F064FEC4F8200104F00AFE04F05EFE8C
:10956000284BC3F81C0104F059FE264B2649D3F8BA
:109570002021D1F8D430821A002AB8BF52429A4230
:109580000AD391F8D820012A06D1002301F8D83F48
:109590004FF48C7005F012FF1B4B93F8D830012B61
:1095A00003D14FF40030FDF743FF174B93F85130D0
:1095B000802B01D0052B52D1124BDB7D012B4ED1DC
:1095C000174B1B681BB1104BD3F890301BB9104BD5
:1095D00000221A6043E0114A124D1468002CB8BFF3
:1095E00064421C1B002C1FDD28684FF0745106F0EC
:1095F00075FB1EE0D4090020E8090020780900204E
:10960000100A0020E40200204C000020F009002095
:10961000080A0020E4090020DC090020F8090020E5
:10962000200A0020180A002028684FF0745106F024
:1096300053FB914B2860914D00215A68286804F033
:10964000CFF8286006F018FE0028B8BF40428C4BC7
:109650001334262C186002D88A4B0222DA754FF494
:109660000040FDF753FF012806D0864B5A7B062A9F
:1096700002D05B7B032B46D14FF48060FDF746FFA1
:1096800001280BD04FF40070FDF740FF012805D0F2
:109690004FF40060FDF73AFF012834D1764C94F87E
:1096A0005130802B2FD0042B2DD8774B77491A6857
:1096B000774B20461B680D687649009504F0C8F882
:1096C00094F851306E4A012B106001D0042B10D158
:1096D000714B1B68002B03DD674B00215A6804E0C7
:1096E00007D0654B00225968494204F071F8644B79
:1096F0001860634B1B68002B01DD002201E002D0E3
:109700000122664B1A70664B186805F06FFC4FF427
:109710000030FDF7FBFE01280BD1594B00226148B8
:109720001A6004F0E5F9604804F0E2F9594804F0E1
:10973000DFF9574B1A68504B002A9B68B8BF52425A
:109740009A4206DD0120FDF773FE584B20221A6174
:1097500005E00120FDF78EFE544B20225A61464B56
:1097600093F85120032A33D005D8012A10D0504C49
:10977000434A39D806E0052A6CD046D3802A40F007
:10978000B6809BE010685A680028B8BF40420BE0E2
:109790005B6809225A433A4B454C18680A23002853
:1097A00092FBF3F2B8BF4042002104F011F82060B0
:1097B0002168404889B202F041FA21683D4889B2E7
:1097C00002F03EFA21683B4889B202F03BFA8EE093
:1097D0005A682B4B002118680028B8BF404203F09C
:1097E000F7FF334B18600AE012685B68002AB8BFC5
:1097F0005242226022689A42C8BF23602C4B1A68EA
:10980000022392FBF3F21F4B6FE05A681C4B284C6B
:1098100018680028B8BF4042002103F0D9FF20603B
:109820002168244889B202F009FA2168214889B2E6
:1098300002F006FA21681F4889B202F003FA114BC0
:109840001D48D3F898100029B8BF494289B202F0E8
:10985000F3F94CE00A49164A09685B680029B8BF69
:109860004942116011689942C8BF1360054B104A04
:10987000D3F89810106830E04C000020180A00203F
:10988000080A0020E4020020D4090020E809002092
:10989000F8090020A8090020200A0020E40900207F
:1098A000DC09002080090020240A0020000C01406F
:1098B000D8090020002C0140000800405A68444BA1
:1098C000002118680028B8BF404203F081FF414AD8
:1098D000414B10601068D3F8981002220029B8BFDD
:1098E000494290FBF2F2C3F89C10C3F8B8203B4BFE
:1098F00093F8522012F0010F22D0394A1268002A40
:109900001EDA93F8533013F0010F03D0002005F056
:109910001DFD40B9314B93F8530010F001000FD1F9
:1099200005F014FD60B90220FDF7A0FE10B12D4B2B
:1099300000221A602C4B00221A602C4B00221A6065
:10994000264B93F8522012F0020F23D0244A1268BB
:10995000002A1FDD93F8533013F0020F03D00120CB
:1099600005F0F4FC48B91D4B93F8533013F0020F87
:1099700010D1012005F0EAFC60B90220FDF776FE67
:1099800010B1184B00221A60174B00221A60174BB7
:1099900000221A60164EF369BBB1164D2C78A4B99B
:1099A00004F03CFC144AF3691268821A002AB8BF1A
:1099B00052429A4209D901232B701020FDF738FD3D
:1099C000094B00221A60094B1C6008B0BDE8F08703
:1099D000080A0020D8090020E40200204C000020E2
:1099E000E8090020D0090020100A0020200A0020E9
:1099F00008000020700900206C090020AFF30080EF
:109A0000014B03221A60704708040020044A054BEA
:109A1000927A0AB1052200E001221A60704700BF65
:109A2000580A002008040020704700BF014B0022A4
:109A30005A6070470804002008B5074B1A6892B2B4
:109A400042F008021A601A6892B242F004021A60E8
:109A5000FFF7D6FF08BD00BF405C004010B5064CC4
:109A60004FF6FB73226802EA03032360FFF7CEFF81
:109A70004FF40643236010BD405C0040072818BF28
:109A80001F4B10B51E4C18BF18702378052B33D808
:109A9000DFE803F003060A0E1621FFF7DFFF2BE0D5
:109AA000FFF7DCFF042328E002236370013324E086
:109AB0006378013BDBB263706378FBB9042218E082
:109AC000104B1A6892B242F010021A6005232370FC
:109AD000DB18637012E06378013BDBB2637063787C
